{"contractName":"Election","abi":[{"inputs":[{"internalType":"string","name":"_name","type":"string"}],"stateMutability":"nonpayable","type":"constructor","signature":"constructor"},{"anonymous":false,"inputs":[{"indexed":false,"internalType":"uint256","name":"candidateId","type":"uint256"},{"indexed":false,"internalType":"string","name":"candidateName","type":"string"},{"indexed":false,"internalType":"uint256","name":"partyId","type":"uint256"},{"indexed":false,"internalType":"uint256","name":"candidateVoteCount","type":"uint256"},{"indexed":false,"internalType":"string","name":"uri","type":"string"}],"name":"NewCandidateAdded","type":"event","signature":"0x726a91efdd2d0123829e8af6427e48d78d66f125b775d28b4cd48e193afc02d2"},{"anonymous":false,"inputs":[{"indexed":true,"internalType":"address","name":"from","type":"address"},{"indexed":false,"internalType":"uint256","name":"citizenshipNumber","type":"uint256"}],"name":"NewRegistration","type":"event","signature":"0x9fbb711049feda7761c841c23846f78a83d6526b886aa614aa55764a56ade574"},{"stateMutability":"payable","type":"fallback","payable":true},{"inputs":[],"name":"candidateCount","outputs":[{"internalType":"uint256","name":"","type":"uint256"}],"stateMutability":"view","type":"function","constant":true,"signature":"0xa9a981a3"},{"inputs":[],"name":"electionName","outputs":[{"internalType":"string","name":"","type":"string"}],"stateMutability":"view","type":"function","constant":true,"signature":"0x85e8e7a7"},{"inputs":[],"name":"endReg","outputs":[{"internalType":"uint256","name":"","type":"uint256"}],"stateMutability":"view","type":"function","constant":true,"signature":"0xc6787c4e"},{"inputs":[],"name":"endVote","outputs":[{"internalType":"uint256","name":"","type":"uint256"}],"stateMutability":"view","type":"function","constant":true,"signature":"0xb9223946"},{"inputs":[],"name":"owner","outputs":[{"internalType":"address","name":"","type":"address"}],"stateMutability":"view","type":"function","constant":true,"signature":"0x8da5cb5b"},{"inputs":[],"name":"startReg","outputs":[{"internalType":"uint256","name":"","type":"uint256"}],"stateMutability":"view","type":"function","constant":true,"signature":"0xbedbc501"},{"inputs":[],"name":"startVote","outputs":[{"internalType":"uint256","name":"","type":"uint256"}],"stateMutability":"view","type":"function","constant":true,"signature":"0x4c0a6af0"},{"inputs":[],"name":"state","outputs":[{"internalType":"enum Election.State","name":"","type":"uint8"}],"stateMutability":"view","type":"function","constant":true,"signature":"0xc19d93fb"},{"inputs":[],"name":"voteCount","outputs":[{"internalType":"uint256","name":"","type":"uint256"}],"stateMutability":"view","type":"function","constant":true,"signature":"0xc6384071"},{"inputs":[{"internalType":"address","name":"","type":"address"}],"name":"voters","outputs":[{"internalType":"address","name":"voterId","type":"address"},{"internalType":"uint256","name":"citizenshipNumber","type":"uint256"},{"internalType":"bool","name":"registered","type":"bool"},{"internalType":"uint256","name":"vote","type":"uint256"},{"internalType":"bool","name":"voted","type":"bool"}],"stateMutability":"view","type":"function","constant":true,"signature":"0xa3ec138d"},{"stateMutability":"payable","type":"receive","payable":true},{"inputs":[],"name":"startElection","outputs":[],"stateMutability":"nonpayable","type":"function","signature":"0x62d73eb8"},{"inputs":[],"name":"endElection","outputs":[],"stateMutability":"nonpayable","type":"function","signature":"0x59f78468"},{"inputs":[],"name":"startRegistration","outputs":[],"stateMutability":"nonpayable","type":"function","signature":"0x10b86695"},{"inputs":[],"name":"endRegistration","outputs":[],"stateMutability":"nonpayable","type":"function","signature":"0x4a8a62ab"},{"inputs":[{"internalType":"uint256","name":"citizenshipNumber","type":"uint256"}],"name":"registerAsVoter","outputs":[],"stateMutability":"nonpayable","type":"function","signature":"0x9bf86ead"},{"inputs":[],"name":"getElectionName","outputs":[{"internalType":"string","name":"","type":"string"}],"stateMutability":"view","type":"function","constant":true,"signature":"0x30e7a79c"},{"inputs":[{"internalType":"string","name":"_candidateName","type":"string"},{"internalType":"uint256","name":"_partyId","type":"uint256"},{"internalType":"string","name":"_uri","type":"string"}],"name":"addCandidates","outputs":[],"stateMutability":"nonpayable","type":"function","signature":"0xdac8fa2a"},{"inputs":[],"name":"getCandidates","outputs":[{"components":[{"internalType":"uint256","name":"candidateId","type":"uint256"},{"internalType":"string","name":"candidateName","type":"string"},{"internalType":"uint256","name":"partyId","type":"uint256"},{"internalType":"uint256","name":"candidateVoteCount","type":"uint256"},{"internalType":"string","name":"uri","type":"string"}],"internalType":"struct Election.Candidate[]","name":"","type":"tuple[]"}],"stateMutability":"view","type":"function","constant":true,"signature":"0x06a49fce"},{"inputs":[{"internalType":"address","name":"_voter","type":"address"}],"name":"approveVoters","outputs":[],"stateMutability":"nonpayable","type":"function","signature":"0xf54603bf"},{"inputs":[{"internalType":"uint256","name":"_candidateId","type":"uint256"}],"name":"vote","outputs":[],"stateMutability":"nonpayable","type":"function","signature":"0x0121b93f"},{"inputs":[],"name":"checkResults","outputs":[{"components":[{"internalType":"uint256","name":"candidateId","type":"uint256"},{"internalType":"string","name":"candidateName","type":"string"},{"internalType":"uint256","name":"partyId","type":"uint256"},{"internalType":"uint256","name":"candidateVoteCount","type":"uint256"},{"internalType":"string","name":"uri","type":"string"}],"internalType":"struct Election.Candidate","name":"winningCandidateId","type":"tuple"}],"stateMutability":"view","type":"function","constant":true,"signature":"0xdca5633b"},{"inputs":[],"name":"getFinalStats","outputs":[{"components":[{"internalType":"uint256","name":"candidateId","type":"uint256"},{"internalType":"string","name":"candidateName","type":"string"},{"internalType":"uint256","name":"partyId","type":"uint256"},{"internalType":"uint256","name":"candidateVoteCount","type":"uint256"},{"internalType":"string","name":"uri","type":"string"}],"internalType":"struct Election.Candidate[]","name":"","type":"tuple[]"}],"stateMutability":"view","type":"function","constant":true,"signature":"0xb5230f00"},{"inputs":[],"name":"getBalance","outputs":[{"internalType":"uint256","name":"","type":"uint256"}],"stateMutability":"view","type":"function","constant":true,"signature":"0x12065fe0"},{"inputs":[{"internalType":"uint256","name":"_candidateId","type":"uint256"}],"name":"getCandidate","outputs":[{"components":[{"internalType":"uint256","name":"candidateId","type":"uint256"},{"internalType":"string","name":"candidateName","type":"string"},{"internalType":"uint256","name":"partyId","type":"uint256"},{"internalType":"uint256","name":"candidateVoteCount","type":"uint256"},{"internalType":"string","name":"uri","type":"string"}],"internalType":"struct Election.Candidate","name":"","type":"tuple"}],"stateMutability":"view","type":"function","constant":true,"signature":"0x35b8e820"},{"inputs":[{"internalType":"address","name":"_voterAddress","type":"address"}],"name":"getVoter","outputs":[{"components":[{"internalType":"address","name":"voterId","type":"address"},{"internalType":"uint256","name":"citizenshipNumber","type":"uint256"},{"internalType":"bool","name":"registered","type":"bool"},{"internalType":"uint256","name":"vote","type":"uint256"},{"internalType":"bool","name":"voted","type":"bool"}],"internalType":"struct Election.Voter","name":"","type":"tuple"}],"stateMutability":"view","type":"function","constant":true,"signature":"0xd4f50f98"},{"inputs":[],"name":"getCurrentState","outputs":[{"internalType":"enum Election.State","name":"","type":"uint8"}],"stateMutability":"view","type":"function","constant":true,"signature":"0x378aa701"},{"inputs":[{"internalType":"address payable","name":"_to","type":"address"},{"internalType":"uint256","name":"_amount","type":"uint256"}],"name":"withdraw","outputs":[],"stateMutability":"payable","type":"function","payable":true,"signature":"0xf3fef3a3"}],"bytecode":"0x608060405260006002557fffffffffffffffffffffffffffffffffffffffffffffffffffffffffffffffff6008556000600960006101000a81548160ff021916908360048111156200005657620000556200010b565b5b02179055503480156200006857600080fd5b50604051620036ee380380620036ee83398181016040528101906200008e9190620002cd565b336000806101000a81548173ffffffffffffffffffffffffffffffffffffffff021916908373ffffffffffffffffffffffffffffffffffffffff1602179055508060019081620000df919062000569565b506008546004819055506008546005819055506008546006819055506008546007819055505062000650565b7f4e487b7100000000000000000000000000000000000000000000000000000000600052602160045260246000fd5b6000604051905090565b600080fd5b600080fd5b600080fd5b600080fd5b6000601f19601f8301169050919050565b7f4e487b7100000000000000000000000000000000000000000000000000000000600052604160045260246000fd5b620001a38262000158565b810181811067ffffffffffffffff82111715620001c557620001c462000169565b5b80604052505050565b6000620001da6200013a565b9050620001e8828262000198565b919050565b600067ffffffffffffffff8211156200020b576200020a62000169565b5b620002168262000158565b9050602081019050919050565b60005b838110156200024357808201518184015260208101905062000226565b60008484015250505050565b6000620002666200026084620001ed565b620001ce565b90508281526020810184848401111562000285576200028462000153565b5b6200029284828562000223565b509392505050565b600082601f830112620002b257620002b16200014e565b5b8151620002c48482602086016200024f565b91505092915050565b600060208284031215620002e657620002e562000144565b5b600082015167ffffffffffffffff81111562000307576200030662000149565b5b62000315848285016200029a565b91505092915050565b600081519050919050565b7f4e487b7100000000000000000000000000000000000000000000000000000000600052602260045260246000fd5b600060028204905060018216806200037157607f821691505b60208210810362000387576200038662000329565b5b50919050565b60008190508160005260206000209050919050565b60006020601f8301049050919050565b600082821b905092915050565b600060088302620003f17fffffffffffffffffffffffffffffffffffffffffffffffffffffffffffffffff82620003b2565b620003fd8683620003b2565b95508019841693508086168417925050509392505050565b6000819050919050565b6000819050919050565b60006200044a620004446200043e8462000415565b6200041f565b62000415565b9050919050565b6000819050919050565b620004668362000429565b6200047e620004758262000451565b848454620003bf565b825550505050565b600090565b6200049562000486565b620004a28184846200045b565b505050565b5b81811015620004ca57620004be6000826200048b565b600181019050620004a8565b5050565b601f8211156200051957620004e3816200038d565b620004ee84620003a2565b81016020851015620004fe578190505b620005166200050d85620003a2565b830182620004a7565b50505b505050565b600082821c905092915050565b60006200053e600019846008026200051e565b1980831691505092915050565b60006200055983836200052b565b9150826002028217905092915050565b62000574826200031e565b67ffffffffffffffff81111562000590576200058f62000169565b5b6200059c825462000358565b620005a9828285620004ce565b600060209050601f831160018114620005e15760008415620005cc578287015190505b620005d885826200054b565b86555062000648565b601f198416620005f1866200038d565b60005b828110156200061b57848901518255600182019150602085019450602081019050620005f4565b868310156200063b578489015162000637601f8916826200052b565b8355505b6001600288020188555050505b505050505050565b61308e80620006606000396000f3fe6080604052600436106101a05760003560e01c80639bf86ead116100ec578063c63840711161008a578063dac8fa2a11610064578063dac8fa2a1461056c578063dca5633b14610595578063f3fef3a3146105c0578063f54603bf146105dc576101a7565b8063c6384071146104d9578063c6787c4e14610504578063d4f50f981461052f576101a7565b8063b5230f00116100c6578063b5230f001461042d578063b922394614610458578063bedbc50114610483578063c19d93fb146104ae576101a7565b80639bf86ead14610398578063a3ec138d146103c1578063a9a981a314610402576101a7565b8063378aa7011161015957806359f784681161013357806359f784681461031457806362d73eb81461032b57806385e8e7a7146103425780638da5cb5b1461036d576101a7565b8063378aa701146102a75780634a8a62ab146102d25780634c0a6af0146102e9576101a7565b80630121b93f146101a957806306a49fce146101d257806310b86695146101fd57806312065fe01461021457806330e7a79c1461023f57806335b8e8201461026a576101a7565b366101a757005b005b3480156101b557600080fd5b506101d060048036038101906101cb9190611f1e565b610605565b005b3480156101de57600080fd5b506101e76107e2565b6040516101f49190612129565b60405180910390f35b34801561020957600080fd5b50610212610a24565b005b34801561022057600080fd5b50610229610ae6565b604051610236919061215a565b60405180910390f35b34801561024b57600080fd5b50610254610aee565b60405161026191906121bf565b60405180910390f35b34801561027657600080fd5b50610291600480360381019061028c9190611f1e565b610b80565b60405161029e919061225e565b60405180910390f35b3480156102b357600080fd5b506102bc610cef565b6040516102c991906122f7565b60405180910390f35b3480156102de57600080fd5b506102e7610d06565b005b3480156102f557600080fd5b506102fe610e17565b60405161030b919061215a565b60405180910390f35b34801561032057600080fd5b50610329610e1d565b005b34801561033757600080fd5b50610340610f2e565b005b34801561034e57600080fd5b5061035761103f565b60405161036491906121bf565b60405180910390f35b34801561037957600080fd5b506103826110cd565b60405161038f9190612353565b60405180910390f35b3480156103a457600080fd5b506103bf60048036038101906103ba9190611f1e565b6110f1565b005b3480156103cd57600080fd5b506103e860048036038101906103e3919061239a565b6113c0565b6040516103f99594939291906123e2565b60405180910390f35b34801561040e57600080fd5b50610417611430565b604051610424919061215a565b60405180910390f35b34801561043957600080fd5b50610442611436565b60405161044f9190612129565b60405180910390f35b34801561046457600080fd5b5061046d611647565b60405161047a919061215a565b60405180910390f35b34801561048f57600080fd5b5061049861164d565b6040516104a5919061215a565b60405180910390f35b3480156104ba57600080fd5b506104c3611653565b6040516104d091906122f7565b60405180910390f35b3480156104e557600080fd5b506104ee611666565b6040516104fb919061215a565b60405180910390f35b34801561051057600080fd5b5061051961166c565b604051610526919061215a565b60405180910390f35b34801561053b57600080fd5b506105566004803603810190610551919061239a565b611672565b60405161056391906124bb565b60405180910390f35b34801561057857600080fd5b50610593600480360381019061058e919061260b565b61176b565b005b3480156105a157600080fd5b506105aa61196d565b6040516105b7919061225e565b60405180910390f35b6105da60048036038101906105d591906126d4565b611b7e565b005b3480156105e857600080fd5b5061060360048036038101906105fe919061239a565b611c9a565b005b42600454111561064a576040517f08c379a000000000000000000000000000000000000000000000000000000000815260040161064190612760565b60405180910390fd5b426005541161068e576040517f08c379a0000000000000000000000000000000000000000000000000000000008152600401610685906127cc565b60405180910390fd5b6000600b60003373ffffffffffffffffffffffffffffffffffffffff1673ffffffffffffffffffffffffffffffffffffffff16815260200190815260200160002090508060040160009054906101000a900460ff1615610723576040517f08c379a000000000000000000000000000000000000000000000000000000000815260040161071a90612838565b60405180910390fd5b8060020160009054906101000a900460ff16610774576040517f08c379a000000000000000000000000000000000000000000000000000000000815260040161076b906128ca565b60405180910390fd5b818160030181905550600a600083815260200190815260200160002060030160008154809291906107a490612919565b9190505550600360008154809291906107bc90612919565b919050555060018160040160006101000a81548160ff0219169083151502179055505050565b6060600060025467ffffffffffffffff811115610802576108016124e0565b5b60405190808252806020026020018201604052801561083b57816020015b610828611e5c565b8152602001906001900390816108205790505b5090506000600190505b6002548111610a1c57600a60008281526020019081526020016000206040518060a00160405290816000820154815260200160018201805461088690612990565b80601f01602080910402602001604051908101604052809291908181526020018280546108b290612990565b80156108ff5780601f106108d4576101008083540402835291602001916108ff565b820191906000526020600020905b8154815290600101906020018083116108e257829003601f168201915b50505050508152602001600282015481526020016003820154815260200160048201805461092c90612990565b80601f016020809104026020016040519081016040528092919081815260200182805461095890612990565b80156109a55780601f1061097a576101008083540402835291602001916109a5565b820191906000526020600020905b81548152906001019060200180831161098857829003601f168201915b505050505081525050826001836109bc91906129c1565b815181106109cd576109cc6129f5565b5b60200260200101819052506000826001836109e891906129c1565b815181106109f9576109f86129f5565b5b602002602001015160600181815250508080610a1490612919565b915050610845565b508091505090565b60008054906101000a900473ffffffffffffffffffffffffffffffffffffffff1673ffffffffffffffffffffffffffffffffffffffff163373ffffffffffffffffffffffffffffffffffffffff1614610ab2576040517f08c379a0000000000000000000000000000000000000000000000000000000008152600401610aa990612a70565b60405180910390fd5b426006819055506001600960006101000a81548160ff02191690836004811115610adf57610ade612280565b5b0217905550565b600047905090565b606060018054610afd90612990565b80601f0160208091040260200160405190810160405280929190818152602001828054610b2990612990565b8015610b765780601f10610b4b57610100808354040283529160200191610b76565b820191906000526020600020905b815481529060010190602001808311610b5957829003601f168201915b5050505050905090565b610b88611e5c565b600a60008381526020019081526020016000206040518060a001604052908160008201548152602001600182018054610bc090612990565b80601f0160208091040260200160405190810160405280929190818152602001828054610bec90612990565b8015610c395780601f10610c0e57610100808354040283529160200191610c39565b820191906000526020600020905b815481529060010190602001808311610c1c57829003601f168201915b505050505081526020016002820154815260200160038201548152602001600482018054610c6690612990565b80601f0160208091040260200160405190810160405280929190818152602001828054610c9290612990565b8015610cdf5780601f10610cb457610100808354040283529160200191610cdf565b820191906000526020600020905b815481529060010190602001808311610cc257829003601f168201915b5050505050815250509050919050565b6000600960009054906101000a900460ff16905090565b60008054906101000a900473ffffffffffffffffffffffffffffffffffffffff1673ffffffffffffffffffffffffffffffffffffffff163373ffffffffffffffffffffffffffffffffffffffff1614610d94576040517f08c379a0000000000000000000000000000000000000000000000000000000008152600401610d8b90612a70565b60405180910390fd5b600654804211610dd9576040517f08c379a0000000000000000000000000000000000000000000000000000000008152600401610dd090612adc565b60405180910390fd5b426007819055506008546006819055506002600960006101000a81548160ff02191690836004811115610e0f57610e0e612280565b5b021790555050565b60045481565b60008054906101000a900473ffffffffffffffffffffffffffffffffffffffff1673ffffffffffffffffffffffffffffffffffffffff163373ffffffffffffffffffffffffffffffffffffffff1614610eab576040517f08c379a0000000000000000000000000000000000000000000000000000000008152600401610ea290612a70565b60405180910390fd5b600454804211610ef0576040517f08c379a0000000000000000000000000000000000000000000000000000000008152600401610ee790612adc565b60405180910390fd5b426005819055506008546004819055506004600960006101000a81548160ff02191690836004811115610f2657610f25612280565b5b021790555050565b60008054906101000a900473ffffffffffffffffffffffffffffffffffffffff1673ffffffffffffffffffffffffffffffffffffffff163373ffffffffffffffffffffffffffffffffffffffff1614610fbc576040517f08c379a0000000000000000000000000000000000000000000000000000000008152600401610fb390612a70565b60405180910390fd5b600754804211611001576040517f08c379a0000000000000000000000000000000000000000000000000000000008152600401610ff890612adc565b60405180910390fd5b426004819055506008546007819055506003600960006101000a81548160ff0219169083600481111561103757611036612280565b5b021790555050565b6001805461104c90612990565b80601f016020809104026020016040519081016040528092919081815260200182805461107890612990565b80156110c55780601f1061109a576101008083540402835291602001916110c5565b820191906000526020600020905b8154815290600101906020018083116110a857829003601f168201915b505050505081565b60008054906101000a900473ffffffffffffffffffffffffffffffffffffffff1681565b600654804211611136576040517f08c379a000000000000000000000000000000000000000000000000000000000815260040161112d90612adc565b60405180910390fd5b60075480421061117b576040517f08c379a000000000000000000000000000000000000000000000000000000000815260040161117290612b6e565b60405180910390fd5b600073ffffffffffffffffffffffffffffffffffffffff16600b60003373ffffffffffffffffffffffffffffffffffffffff1673ffffffffffffffffffffffffffffffffffffffff16815260200190815260200160002060000160009054906101000a900473ffffffffffffffffffffffffffffffffffffffff1673ffffffffffffffffffffffffffffffffffffffff161461124c576040517f08c379a000000000000000000000000000000000000000000000000000000000815260040161124390612bda565b60405180910390fd5b6040518060a001604052803373ffffffffffffffffffffffffffffffffffffffff1681526020018481526020016000151581526020016000815260200160001515815250600b60003373ffffffffffffffffffffffffffffffffffffffff1673ffffffffffffffffffffffffffffffffffffffff16815260200190815260200160002060008201518160000160006101000a81548173ffffffffffffffffffffffffffffffffffffffff021916908373ffffffffffffffffffffffffffffffffffffffff1602179055506020820151816001015560408201518160020160006101000a81548160ff0219169083151502179055506060820151816003015560808201518160040160006101000a81548160ff0219169083151502179055509050503373ffffffffffffffffffffffffffffffffffffffff167f9fbb711049feda7761c841c23846f78a83d6526b886aa614aa55764a56ade574846040516113b3919061215a565b60405180910390a2505050565b600b6020528060005260406000206000915090508060000160009054906101000a900473ffffffffffffffffffffffffffffffffffffffff16908060010154908060020160009054906101000a900460ff16908060030154908060040160009054906101000a900460ff16905085565b60025481565b6060600060025467ffffffffffffffff811115611456576114556124e0565b5b60405190808252806020026020018201604052801561148f57816020015b61147c611e5c565b8152602001906001900390816114745790505b5090506000600190505b600254811161163f57600a60008281526020019081526020016000206040518060a0016040529081600082015481526020016001820180546114da90612990565b80601f016020809104026020016040519081016040528092919081815260200182805461150690612990565b80156115535780601f1061152857610100808354040283529160200191611553565b820191906000526020600020905b81548152906001019060200180831161153657829003601f168201915b50505050508152602001600282015481526020016003820154815260200160048201805461158090612990565b80601f01602080910402602001604051908101604052809291908181526020018280546115ac90612990565b80156115f95780601f106115ce576101008083540402835291602001916115f9565b820191906000526020600020905b8154815290600101906020018083116115dc57829003601f168201915b5050505050815250508260018361161091906129c1565b81518110611621576116206129f5565b5b6020026020010181905250808061163790612919565b915050611499565b508091505090565b60055481565b60065481565b600960009054906101000a900460ff1681565b60035481565b60075481565b61167a611e8b565b600b60008373ffffffffffffffffffffffffffffffffffffffff1673ffffffffffffffffffffffffffffffffffffffff1681526020019081526020016000206040518060a00160405290816000820160009054906101000a900473ffffffffffffffffffffffffffffffffffffffff1673ffffffffffffffffffffffffffffffffffffffff1673ffffffffffffffffffffffffffffffffffffffff168152602001600182015481526020016002820160009054906101000a900460ff16151515158152602001600382015481526020016004820160009054906101000a900460ff1615151515815250509050919050565b6004548042106117b0576040517f08c379a00000000000000000000000000000000000000000000000000000000081526004016117a790612b6e565b60405180910390fd5b60008054906101000a900473ffffffffffffffffffffffffffffffffffffffff1673ffffffffffffffffffffffffffffffffffffffff163373ffffffffffffffffffffffffffffffffffffffff161461183e576040517f08c379a000000000000000000000000000000000000000000000000000000000815260040161183590612a70565b60405180910390fd5b60008311611881576040517f08c379a000000000000000000000000000000000000000000000000000000000815260040161187890612c46565b60405180910390fd5b6002600081548092919061189490612919565b91905055506040518060a0016040528060025481526020018581526020018481526020016000815260200183815250600a600060025481526020019081526020016000206000820151816000015560208201518160010190816118f79190612e12565b50604082015181600201556060820151816003015560808201518160040190816119219190612e12565b509050507f726a91efdd2d0123829e8af6427e48d78d66f125b775d28b4cd48e193afc02d2600254858560008660405161195f959493929190612f1f565b60405180910390a150505050565b611975611e5c565b6005548042116119ba576040517f08c379a00000000000000000000000000000000000000000000000000000000081526004016119b190612adc565b60405180910390fd5b600080600190505b6002548111611b785781600a6000838152602001908152602001600020600301541115611b6557600a6000828152602001908152602001600020600301549150600a60008281526020019081526020016000206040518060a001604052908160008201548152602001600182018054611a3a90612990565b80601f0160208091040260200160405190810160405280929190818152602001828054611a6690612990565b8015611ab35780601f10611a8857610100808354040283529160200191611ab3565b820191906000526020600020905b815481529060010190602001808311611a9657829003601f168201915b505050505081526020016002820154815260200160038201548152602001600482018054611ae090612990565b80601f0160208091040260200160405190810160405280929190818152602001828054611b0c90612990565b8015611b595780601f10611b2e57610100808354040283529160200191611b59565b820191906000526020600020905b815481529060010190602001808311611b3c57829003601f168201915b50505050508152505093505b8080611b7090612919565b9150506119c2565b50505090565b60008054906101000a900473ffffffffffffffffffffffffffffffffffffffff1673ffffffffffffffffffffffffffffffffffffffff163373ffffffffffffffffffffffffffffffffffffffff1614611c0c576040517f08c379a0000000000000000000000000000000000000000000000000000000008152600401611c0390612a70565b60405180910390fd5b80471015611c4f576040517f08c379a0000000000000000000000000000000000000000000000000000000008152600401611c4690612fcc565b60405180910390fd5b8173ffffffffffffffffffffffffffffffffffffffff166108fc829081150290604051600060405180830381858888f19350505050158015611c95573d6000803e3d6000fd5b505050565b600454804210611cdf576040517f08c379a0000000000000000000000000000000000000000000000000000000008152600401611cd690612b6e565b60405180910390fd5b60008054906101000a900473ffffffffffffffffffffffffffffffffffffffff1673ffffffffffffffffffffffffffffffffffffffff163373ffffffffffffffffffffffffffffffffffffffff1614611d6d576040517f08c379a0000000000000000000000000000000000000000000000000000000008152600401611d6490612a70565b60405180910390fd5b600b60008373ffffffffffffffffffffffffffffffffffffffff1673ffffffffffffffffffffffffffffffffffffffff16815260200190815260200160002060020160009054906101000a900460ff1615611dfd576040517f08c379a0000000000000000000000000000000000000000000000000000000008152600401611df490613038565b60405180910390fd5b6001600b60008473ffffffffffffffffffffffffffffffffffffffff1673ffffffffffffffffffffffffffffffffffffffff16815260200190815260200160002060020160006101000a81548160ff0219169083151502179055505050565b6040518060a0016040528060008152602001606081526020016000815260200160008152602001606081525090565b6040518060a00160405280600073ffffffffffffffffffffffffffffffffffffffff16815260200160008152602001600015158152602001600081526020016000151581525090565b6000604051905090565b600080fd5b600080fd5b6000819050919050565b611efb81611ee8565b8114611f0657600080fd5b50565b600081359050611f1881611ef2565b92915050565b600060208284031215611f3457611f33611ede565b5b6000611f4284828501611f09565b91505092915050565b600081519050919050565b600082825260208201905092915050565b6000819050602082019050919050565b611f8081611ee8565b82525050565b600081519050919050565b600082825260208201905092915050565b60005b83811015611fc0578082015181840152602081019050611fa5565b60008484015250505050565b6000601f19601f8301169050919050565b6000611fe882611f86565b611ff28185611f91565b9350612002818560208601611fa2565b61200b81611fcc565b840191505092915050565b600060a08301600083015161202e6000860182611f77565b50602083015184820360208601526120468282611fdd565b915050604083015161205b6040860182611f77565b50606083015161206e6060860182611f77565b50608083015184820360808601526120868282611fdd565b9150508091505092915050565b600061209f8383612016565b905092915050565b6000602082019050919050565b60006120bf82611f4b565b6120c98185611f56565b9350836020820285016120db85611f67565b8060005b8581101561211757848403895281516120f88582612093565b9450612103836120a7565b925060208a019950506001810190506120df565b50829750879550505050505092915050565b6000602082019050818103600083015261214381846120b4565b905092915050565b61215481611ee8565b82525050565b600060208201905061216f600083018461214b565b92915050565b600082825260208201905092915050565b600061219182611f86565b61219b8185612175565b93506121ab818560208601611fa2565b6121b481611fcc565b840191505092915050565b600060208201905081810360008301526121d98184612186565b905092915050565b600060a0830160008301516121f96000860182611f77565b50602083015184820360208601526122118282611fdd565b91505060408301516122266040860182611f77565b5060608301516122396060860182611f77565b50608083015184820360808601526122518282611fdd565b9150508091505092915050565b6000602082019050818103600083015261227881846121e1565b905092915050565b7f4e487b7100000000000000000000000000000000000000000000000000000000600052602160045260246000fd5b600581106122c0576122bf612280565b5b50565b60008190506122d1826122af565b919050565b60006122e1826122c3565b9050919050565b6122f1816122d6565b82525050565b600060208201905061230c60008301846122e8565b92915050565b600073ffffffffffffffffffffffffffffffffffffffff82169050919050565b600061233d82612312565b9050919050565b61234d81612332565b82525050565b60006020820190506123686000830184612344565b92915050565b61237781612332565b811461238257600080fd5b50565b6000813590506123948161236e565b92915050565b6000602082840312156123b0576123af611ede565b5b60006123be84828501612385565b91505092915050565b60008115159050919050565b6123dc816123c7565b82525050565b600060a0820190506123f76000830188612344565b612404602083018761214b565b61241160408301866123d3565b61241e606083018561214b565b61242b60808301846123d3565b9695505050505050565b61243e81612332565b82525050565b61244d816123c7565b82525050565b60a0820160008201516124696000850182612435565b50602082015161247c6020850182611f77565b50604082015161248f6040850182612444565b5060608201516124a26060850182611f77565b5060808201516124b56080850182612444565b50505050565b600060a0820190506124d06000830184612453565b92915050565b600080fd5b600080fd5b7f4e487b7100000000000000000000000000000000000000000000000000000000600052604160045260246000fd5b61251882611fcc565b810181811067ffffffffffffffff82111715612537576125366124e0565b5b80604052505050565b600061254a611ed4565b9050612556828261250f565b919050565b600067ffffffffffffffff821115612576576125756124e0565b5b61257f82611fcc565b9050602081019050919050565b82818337600083830152505050565b60006125ae6125a98461255b565b612540565b9050828152602081018484840111156125ca576125c96124db565b5b6125d584828561258c565b509392505050565b600082601f8301126125f2576125f16124d6565b5b813561260284826020860161259b565b91505092915050565b60008060006060848603121561262457612623611ede565b5b600084013567ffffffffffffffff81111561264257612641611ee3565b5b61264e868287016125dd565b935050602061265f86828701611f09565b925050604084013567ffffffffffffffff8111156126805761267f611ee3565b5b61268c868287016125dd565b9150509250925092565b60006126a182612312565b9050919050565b6126b181612696565b81146126bc57600080fd5b50565b6000813590506126ce816126a8565b92915050565b600080604083850312156126eb576126ea611ede565b5b60006126f9858286016126bf565b925050602061270a85828601611f09565b9150509250929050565b7f456c656374696f6e20686173206e6f742073746172746564207965742e000000600082015250565b600061274a601d83612175565b915061275582612714565b602082019050919050565b600060208201905081810360008301526127798161273d565b9050919050565b7f456c656374696f6e206973206f7665722e000000000000000000000000000000600082015250565b60006127b6601183612175565b91506127c182612780565b602082019050919050565b600060208201905081810360008301526127e5816127a9565b9050919050565b7f596f75206861766520616c726561647920766f74656400000000000000000000600082015250565b6000612822601683612175565b915061282d826127ec565b602082019050919050565b6000602082019050818103600083015261285181612815565b9050919050565b7f596f7520617265206e6f7420726567697374657265642f617070726f7665642060008201527f6173206120766f74657200000000000000000000000000000000000000000000602082015250565b60006128b4602a83612175565b91506128bf82612858565b604082019050919050565b600060208201905081810360008301526128e3816128a7565b9050919050565b7f4e487b7100000000000000000000000000000000000000000000000000000000600052601160045260246000fd5b600061292482611ee8565b91507fffffffffffffffffffffffffffffffffffffffffffffffffffffffffffffffff8203612956576129556128ea565b5b600182019050919050565b7f4e487b7100000000000000000000000000000000000000000000000000000000600052602260045260246000fd5b600060028204905060018216806129a857607f821691505b6020821081036129bb576129ba612961565b5b50919050565b60006129cc82611ee8565b91506129d783611ee8565b92508282039050818111156129ef576129ee6128ea565b5b92915050565b7f4e487b7100000000000000000000000000000000000000000000000000000000600052603260045260246000fd5b7f4f6e6c79206f776e65722063616e206163636573732074686973000000000000600082015250565b6000612a5a601a83612175565b9150612a6582612a24565b602082019050919050565b60006020820190508181036000830152612a8981612a4d565b9050919050565b7f5761697420666f72207374617274000000000000000000000000000000000000600082015250565b6000612ac6600e83612175565b9150612ad182612a90565b602082019050919050565b60006020820190508181036000830152612af581612ab9565b9050919050565b7f54696d6520666f72207468697320616374696f6e20686173206578636565646560008201527f6400000000000000000000000000000000000000000000000000000000000000602082015250565b6000612b58602183612175565b9150612b6382612afc565b604082019050919050565b60006020820190508181036000830152612b8781612b4b565b9050919050565b7f566f74657220616c726561647920726567697374657265640000000000000000600082015250565b6000612bc4601883612175565b9150612bcf82612b8e565b602082019050919050565b60006020820190508181036000830152612bf381612bb7565b9050919050565b7f54686520706172747949642073686f756c646e2774206265207a65726f000000600082015250565b6000612c30601d83612175565b9150612c3b82612bfa565b602082019050919050565b60006020820190508181036000830152612c5f81612c23565b9050919050565b60008190508160005260206000209050919050565b60006020601f8301049050919050565b600082821b905092915050565b600060088302612cc87fffffffffffffffffffffffffffffffffffffffffffffffffffffffffffffffff82612c8b565b612cd28683612c8b565b95508019841693508086168417925050509392505050565b6000819050919050565b6000612d0f612d0a612d0584611ee8565b612cea565b611ee8565b9050919050565b6000819050919050565b612d2983612cf4565b612d3d612d3582612d16565b848454612c98565b825550505050565b600090565b612d52612d45565b612d5d818484612d20565b505050565b5b81811015612d8157612d76600082612d4a565b600181019050612d63565b5050565b601f821115612dc657612d9781612c66565b612da084612c7b565b81016020851015612daf578190505b612dc3612dbb85612c7b565b830182612d62565b50505b505050565b600082821c905092915050565b6000612de960001984600802612dcb565b1980831691505092915050565b6000612e028383612dd8565b9150826002028217905092915050565b612e1b82611f86565b67ffffffffffffffff811115612e3457612e336124e0565b5b612e3e8254612990565b612e49828285612d85565b600060209050601f831160018114612e7c5760008415612e6a578287015190505b612e748582612df6565b865550612edc565b601f198416612e8a86612c66565b60005b82811015612eb257848901518255600182019150602085019450602081019050612e8d565b86831015612ecf5784890151612ecb601f891682612dd8565b8355505b6001600288020188555050505b505050505050565b6000819050919050565b6000612f09612f04612eff84612ee4565b612cea565b611ee8565b9050919050565b612f1981612eee565b82525050565b600060a082019050612f34600083018861214b565b8181036020830152612f468187612186565b9050612f55604083018661214b565b612f626060830185612f10565b8181036080830152612f748184612186565b90509695505050505050565b7f4e6f20656e6f7567682066756e6420746f207769746864726177000000000000600082015250565b6000612fb6601a83612175565b9150612fc182612f80565b602082019050919050565b60006020820190508181036000830152612fe581612fa9565b9050919050565b7f566f74657220686173206e6f7420726567697374657265642079657400000000600082015250565b6000613022601c83612175565b915061302d82612fec565b602082019050919050565b6000602082019050818103600083015261305181613015565b905091905056fea2646970667358221220e162cd42800e261a3ba79383b4c90c84b43356711a1fa807e7970fb76bb08a3964736f6c63430008130033","immutableReferences":{},"source":"// SPDX-License-Identifier: MIT\n\npragma solidity >=0.7.0 <0.9.0;\n\n// Pass dynamic arrays and structs between functions\npragma experimental ABIEncoderV2;\n\ncontract Election {\n    address public owner;\n    string public electionName;\n    uint public candidateCount = 0;\n    uint public voteCount;\n    uint public startVote;\n    uint public endVote;\n    uint public startReg;\n    uint public endReg;\n\n    uint256 MAX_INT = 2 ** 256 - 1;\n    // Election Current state\n    enum State {\n        registrationNotStarted,\n        registrationStarted,\n        registrationEnded,\n        electionStarted,\n        electionEnded\n    }\n\n    State public state = State.registrationNotStarted;\n\n    /**\n     *\t@dev Deployer sets the name of the election.\n     *\tDeployer is the owner of contract\n     */\n    constructor(string memory _name) {\n        owner = msg.sender;\n        electionName = _name;\n        startVote = MAX_INT;\n        endVote = MAX_INT;\n        startReg = MAX_INT;\n        endReg = MAX_INT;\n    }\n\n    struct Candidate {\n        uint candidateId;\n        string candidateName;\n        uint partyId;\n        uint candidateVoteCount;\n        string uri; // May contain the link to profile picture or any metadata.\n    }\n\n    struct Voter {\n        address voterId;\n        uint256 citizenshipNumber;\n        bool registered;\n        uint256 vote;\n        bool voted;\n    }\n\n    // Mappings\n    mapping(uint => Candidate) candidates;\n    mapping(address => Voter) public voters;\n\n    // Events\n    event NewCandidateAdded(\n        uint candidateId,\n        string candidateName,\n        uint partyId,\n        uint candidateVoteCount,\n        string uri\n    );\n\n    event NewRegistration(address indexed from, uint citizenshipNumber);\n\n    /**\n     *\tOnly owner can call functions with this modifier\n     *\n     */\n    modifier onlyOwner() {\n        require(msg.sender == owner, \"Only owner can access this\");\n        _;\n    }\n\n    /**\n     *\tFunction with this modifer can only be called before _time.\n     *\n     */\n    modifier onlyBefore(uint _time) {\n        require(block.timestamp < _time, \"Time for this action has exceeded\");\n        _;\n    }\n\n    /**\n     *\tFunction with this modifer can only be called after _time.\n     *\n     */\n    modifier onlyAfter(uint _time) {\n        require(block.timestamp > _time, \"Wait for start\");\n        _;\n    }\n\n    /**\n     *\t@dev Can start election\n     *  Election can start only after registration period expired.\n     */\n    function startElection() public onlyOwner onlyAfter(endReg) {\n        startVote = block.timestamp;\n        endReg = MAX_INT;\n        state = State.electionStarted;\n    }\n\n    /**\n     * @dev Can end election\n     * Only owner can end the election\n     */\n    function endElection() public onlyOwner onlyAfter(startVote) {\n        endVote = block.timestamp;\n        startVote = MAX_INT;\n        state = State.electionEnded;\n    }\n\n    /**\n     *\t@dev Can start registration\n     *  Voters can be registered after registration starts\n     */\n    function startRegistration() public onlyOwner {\n        startReg = block.timestamp;\n        state = State.registrationStarted;\n    }\n\n    /**\n     *\t@dev Can end registration\n     *  Voters can not be registered after registration ends\n     */\n    function endRegistration() public onlyOwner onlyAfter(startReg) {\n        endReg = block.timestamp;\n        startReg = MAX_INT;\n        state = State.registrationEnded;\n    }\n\n    /**\n     *\t@dev Can register to vote in the election\n     *  @param citizenshipNumber Their unique identification number (can be replaced with any unique data for that person)\n     *  TODO:\n     *\t\t- An address who has aready registered can call this method again and again.\n     * \t\t- Can be fixed by adding one key which represents if user has asked to register in Voter struct\n     * \t\t- Set that to true when voter registers.\n     * \t\t- Check that key is set to false before allowing to register\n     */\n    function registerAsVoter(\n        uint256 citizenshipNumber\n    ) public onlyAfter(startReg) onlyBefore(endReg) {\n        require(\n            voters[msg.sender].voterId == address(0),\n            \"Voter already registered\"\n        );\n        voters[msg.sender] = Voter(\n            msg.sender,\n            citizenshipNumber,\n            false, // default for the approval of registration\n            0,\n            false // default for the voted state\n        );\n        emit NewRegistration(msg.sender, citizenshipNumber);\n    }\n\n    /**\n     *\t@dev Returns the name of the election\n     * \t\t It is reduntant, as electionName variable is public\n     */\n    function getElectionName() public view returns (string memory) {\n        return electionName;\n    }\n\n    /**\n     *\t@dev Can add candidates for an election\n     *  @param _candidateName Name of the candidate\n     *  @param _partyId Id representing political party they belong to\n     *  @param _uri Metadata for the candidate\n     */\n    function addCandidates(\n        string memory _candidateName,\n        uint _partyId,\n        string memory _uri\n    ) public onlyBefore(startVote) onlyOwner {\n        require(_partyId > 0, \"The partyId shouldn't be zero\");\n        candidateCount++;\n        candidates[candidateCount] = Candidate(\n            candidateCount,\n            _candidateName,\n            _partyId,\n            0,\n            _uri\n        );\n        emit NewCandidateAdded(\n            candidateCount,\n            _candidateName,\n            _partyId,\n            0,\n            _uri\n        );\n    }\n\n    /**\n     *\t@dev Can get candidates data\n     */\n    function getCandidates() external view returns (Candidate[] memory) {\n        Candidate[] memory list = new Candidate[](candidateCount);\n        for (uint256 i = 1; i <= candidateCount; i++) {\n            list[i - 1] = candidates[i];\n            list[i - 1].candidateVoteCount = 0;\n        }\n        return list;\n    }\n\n    /**\n     *\t@dev Can approve voters\n     *  @param _voter Address of the voter\n     * \tTODO:\n     * \t\tVoters who have not registered, can be approved.\n     *\t\tCan be fixed by adding one key which represents if user has asked to register in Voter struct\n     */\n    function approveVoters(\n        address _voter\n    ) public onlyBefore(startVote) onlyOwner {\n        require(!voters[_voter].registered, \"Voter has not registered yet\");\n        voters[_voter].registered = true;\n    }\n\n    /**\n     *\t@dev Can vote for their desired candidate\n     *  @param _candidateId The candidateId of the desired candidate\n     */\n    function vote(uint _candidateId) public {\n        require(startVote <= block.timestamp, \"Election has not started yet.\");\n        require(endVote > block.timestamp, \"Election is over.\");\n\n        Voter storage _voter = voters[msg.sender];\n\n        require(!_voter.voted, \"You have already voted\");\n        require(\n            _voter.registered,\n            \"You are not registered/approved as a voter\"\n        );\n\n        _voter.vote = _candidateId;\n        candidates[_candidateId].candidateVoteCount++;\n        voteCount++;\n        _voter.voted = true;\n    }\n\n    /**\n     *\t@dev Can get Candidate who won the election\n     */\n    function checkResults()\n        external\n        view\n        onlyAfter(endVote)\n        returns (Candidate memory winningCandidateId)\n    {\n        uint highestVoteCount = 0;\n        for (uint i = 1; i <= candidateCount; i++) {\n            if (candidates[i].candidateVoteCount > highestVoteCount) {\n                highestVoteCount = candidates[i].candidateVoteCount;\n                winningCandidateId = candidates[i];\n            }\n        }\n    }\n\n    /**\n     *\t@dev Can get vote details for each candidate\n     */\n    function getFinalStats() external view returns (Candidate[] memory) {\n        Candidate[] memory list = new Candidate[](candidateCount);\n        for (uint256 i = 1; i <= candidateCount; i++) {\n            list[i - 1] = candidates[i];\n        }\n        return list;\n    }\n\n    /**\n     * @dev Can get ether balance of contract\n     */\n    function getBalance() public view returns (uint) {\n        return address(this).balance;\n    }\n\n    /**\n     * @dev Can get particular candidate using candidate Id\n     */\n    function getCandidate(\n        uint256 _candidateId\n    ) public view returns (Candidate memory) {\n        return candidates[_candidateId];\n    }\n\n    /**\n     * @dev Can get particular candidate using candidate Id\n     */\n    function getVoter(\n        address _voterAddress\n    ) public view returns (Voter memory) {\n        return voters[_voterAddress];\n    }\n\n    /**\n     * @dev Can get contract internal State\n     */\n    function getCurrentState() public view returns (State) {\n        return state;\n    }\n\n    /**\n     * @dev Withdraw to a wallet\n     * @param _to Address to transfer amount to\n     * @param _amount Amount of ETH in wei\n     */\n\n    function withdraw(\n        address payable _to,\n        uint _amount\n    ) external payable onlyOwner {\n        require(address(this).balance >= _amount, \"No enough fund to withdraw\");\n        payable(_to).transfer(_amount);\n    }\n\n    fallback() external payable {}\n\n    receive() external payable {}\n}\n","sourcePath":"/home/yogesharyal/Documents/Blockchain Fellowship/voting_dapp/contracts/Election.sol","compiler":{"name":"solc","version":"0.8.19+commit.7dd6d404.Emscripten.clang"},"schemaVersion":"3.4.13","updatedAt":"2023-05-11T17:07:24.553Z","networkType":"ethereum","devdoc":{"kind":"dev","methods":{"addCandidates(string,uint256,string)":{"details":"Can add candidates for an election","params":{"_candidateName":"Name of the candidate","_partyId":"Id representing political party they belong to","_uri":"Metadata for the candidate"}},"approveVoters(address)":{"details":"Can approve voters","params":{"_voter":"Address of the voter \tTODO: \t\tVoters who have not registered, can be approved.\t\tCan be fixed by adding one key which represents if user has asked to register in Voter struct"}},"checkResults()":{"details":"Can get Candidate who won the election"},"constructor":{"details":"Deployer sets the name of the election.\tDeployer is the owner of contract"},"endElection()":{"details":"Can end election Only owner can end the election"},"endRegistration()":{"details":"Can end registration  Voters can not be registered after registration ends"},"getBalance()":{"details":"Can get ether balance of contract"},"getCandidate(uint256)":{"details":"Can get particular candidate using candidate Id"},"getCandidates()":{"details":"Can get candidates data"},"getCurrentState()":{"details":"Can get contract internal State"},"getElectionName()":{"details":"Returns the name of the election \t\t It is reduntant, as electionName variable is public"},"getFinalStats()":{"details":"Can get vote details for each candidate"},"getVoter(address)":{"details":"Can get particular candidate using candidate Id"},"registerAsVoter(uint256)":{"details":"Can register to vote in the election","params":{"citizenshipNumber":"Their unique identification number (can be replaced with any unique data for that person)  TODO:\t\t- An address who has aready registered can call this method again and again. \t\t- Can be fixed by adding one key which represents if user has asked to register in Voter struct \t\t- Set that to true when voter registers. \t\t- Check that key is set to false before allowing to register"}},"startElection()":{"details":"Can start election  Election can start only after registration period expired."},"startRegistration()":{"details":"Can start registration  Voters can be registered after registration starts"},"vote(uint256)":{"details":"Can vote for their desired candidate","params":{"_candidateId":"The candidateId of the desired candidate"}},"withdraw(address,uint256)":{"details":"Withdraw to a wallet","params":{"_amount":"Amount of ETH in wei","_to":"Address to transfer amount to"}}},"version":1},"userdoc":{"kind":"user","methods":{},"version":1},"timeoutBlocks":0,"autoGas":true,"gasMultiplier":1.25}