{"contractName":"Election","abi":[{"inputs":[{"internalType":"string","name":"_name","type":"string"}],"stateMutability":"nonpayable","type":"constructor","signature":"constructor"},{"anonymous":false,"inputs":[{"indexed":false,"internalType":"uint256","name":"candidateId","type":"uint256"},{"indexed":false,"internalType":"string","name":"candidateName","type":"string"},{"indexed":false,"internalType":"uint256","name":"partyId","type":"uint256"},{"indexed":false,"internalType":"uint256","name":"candidateVoteCount","type":"uint256"},{"indexed":false,"internalType":"string","name":"uri","type":"string"}],"name":"NewCandidateAdded","type":"event","signature":"0x726a91efdd2d0123829e8af6427e48d78d66f125b775d28b4cd48e193afc02d2"},{"anonymous":false,"inputs":[{"indexed":true,"internalType":"address","name":"from","type":"address"},{"indexed":false,"internalType":"uint256","name":"citizenshipNumber","type":"uint256"}],"name":"NewRegistration","type":"event","signature":"0x9fbb711049feda7761c841c23846f78a83d6526b886aa614aa55764a56ade574"},{"stateMutability":"payable","type":"fallback","payable":true},{"inputs":[],"name":"candidateCount","outputs":[{"internalType":"uint256","name":"","type":"uint256"}],"stateMutability":"view","type":"function","constant":true,"signature":"0xa9a981a3"},{"inputs":[],"name":"electionName","outputs":[{"internalType":"string","name":"","type":"string"}],"stateMutability":"view","type":"function","constant":true,"signature":"0x85e8e7a7"},{"inputs":[],"name":"endReg","outputs":[{"internalType":"uint256","name":"","type":"uint256"}],"stateMutability":"view","type":"function","constant":true,"signature":"0xc6787c4e"},{"inputs":[],"name":"endVote","outputs":[{"internalType":"uint256","name":"","type":"uint256"}],"stateMutability":"view","type":"function","constant":true,"signature":"0xb9223946"},{"inputs":[],"name":"owner","outputs":[{"internalType":"address","name":"","type":"address"}],"stateMutability":"view","type":"function","constant":true,"signature":"0x8da5cb5b"},{"inputs":[],"name":"startReg","outputs":[{"internalType":"uint256","name":"","type":"uint256"}],"stateMutability":"view","type":"function","constant":true,"signature":"0xbedbc501"},{"inputs":[],"name":"startVote","outputs":[{"internalType":"uint256","name":"","type":"uint256"}],"stateMutability":"view","type":"function","constant":true,"signature":"0x4c0a6af0"},{"inputs":[],"name":"state","outputs":[{"internalType":"enum Election.State","name":"","type":"uint8"}],"stateMutability":"view","type":"function","constant":true,"signature":"0xc19d93fb"},{"inputs":[],"name":"voteCount","outputs":[{"internalType":"uint256","name":"","type":"uint256"}],"stateMutability":"view","type":"function","constant":true,"signature":"0xc6384071"},{"inputs":[{"internalType":"uint256","name":"","type":"uint256"}],"name":"voterAddresses","outputs":[{"internalType":"address","name":"","type":"address"}],"stateMutability":"view","type":"function","constant":true,"signature":"0xdd0e2373"},{"inputs":[{"internalType":"address","name":"","type":"address"}],"name":"voters","outputs":[{"internalType":"address","name":"voterId","type":"address"},{"internalType":"uint256","name":"citizenshipNumber","type":"uint256"},{"internalType":"bool","name":"registered","type":"bool"},{"internalType":"uint256","name":"vote","type":"uint256"},{"internalType":"bool","name":"voted","type":"bool"}],"stateMutability":"view","type":"function","constant":true,"signature":"0xa3ec138d"},{"stateMutability":"payable","type":"receive","payable":true},{"inputs":[],"name":"startElection","outputs":[],"stateMutability":"nonpayable","type":"function","signature":"0x62d73eb8"},{"inputs":[],"name":"endElection","outputs":[],"stateMutability":"nonpayable","type":"function","signature":"0x59f78468"},{"inputs":[],"name":"startRegistration","outputs":[],"stateMutability":"nonpayable","type":"function","signature":"0x10b86695"},{"inputs":[],"name":"endRegistration","outputs":[],"stateMutability":"nonpayable","type":"function","signature":"0x4a8a62ab"},{"inputs":[{"internalType":"uint256","name":"citizenshipNumber","type":"uint256"}],"name":"registerAsVoter","outputs":[],"stateMutability":"nonpayable","type":"function","signature":"0x9bf86ead"},{"inputs":[],"name":"getElectionName","outputs":[{"internalType":"string","name":"","type":"string"}],"stateMutability":"view","type":"function","constant":true,"signature":"0x30e7a79c"},{"inputs":[{"internalType":"string","name":"_candidateName","type":"string"},{"internalType":"uint256","name":"_partyId","type":"uint256"},{"internalType":"string","name":"_uri","type":"string"}],"name":"addCandidates","outputs":[],"stateMutability":"nonpayable","type":"function","signature":"0xdac8fa2a"},{"inputs":[],"name":"getCandidates","outputs":[{"components":[{"internalType":"uint256","name":"candidateId","type":"uint256"},{"internalType":"string","name":"candidateName","type":"string"},{"internalType":"uint256","name":"partyId","type":"uint256"},{"internalType":"uint256","name":"candidateVoteCount","type":"uint256"},{"internalType":"string","name":"uri","type":"string"}],"internalType":"struct Election.Candidate[]","name":"","type":"tuple[]"}],"stateMutability":"view","type":"function","constant":true,"signature":"0x06a49fce"},{"inputs":[],"name":"getNonApprovedVoters","outputs":[{"components":[{"internalType":"address","name":"voterId","type":"address"},{"internalType":"uint256","name":"citizenshipNumber","type":"uint256"},{"internalType":"bool","name":"registered","type":"bool"},{"internalType":"uint256","name":"vote","type":"uint256"},{"internalType":"bool","name":"voted","type":"bool"}],"internalType":"struct Election.Voter[]","name":"","type":"tuple[]"}],"stateMutability":"view","type":"function","constant":true,"signature":"0x0b7fb236"},{"inputs":[{"internalType":"address","name":"_voter","type":"address"}],"name":"approveVoters","outputs":[],"stateMutability":"nonpayable","type":"function","signature":"0xf54603bf"},{"inputs":[{"internalType":"uint256","name":"_candidateId","type":"uint256"}],"name":"vote","outputs":[],"stateMutability":"nonpayable","type":"function","signature":"0x0121b93f"},{"inputs":[],"name":"checkResults","outputs":[{"components":[{"internalType":"uint256","name":"candidateId","type":"uint256"},{"internalType":"string","name":"candidateName","type":"string"},{"internalType":"uint256","name":"partyId","type":"uint256"},{"internalType":"uint256","name":"candidateVoteCount","type":"uint256"},{"internalType":"string","name":"uri","type":"string"}],"internalType":"struct Election.Candidate","name":"winningCandidateId","type":"tuple"}],"stateMutability":"view","type":"function","constant":true,"signature":"0xdca5633b"},{"inputs":[],"name":"getFinalStats","outputs":[{"components":[{"internalType":"uint256","name":"candidateId","type":"uint256"},{"internalType":"string","name":"candidateName","type":"string"},{"internalType":"uint256","name":"partyId","type":"uint256"},{"internalType":"uint256","name":"candidateVoteCount","type":"uint256"},{"internalType":"string","name":"uri","type":"string"}],"internalType":"struct Election.Candidate[]","name":"","type":"tuple[]"}],"stateMutability":"view","type":"function","constant":true,"signature":"0xb5230f00"},{"inputs":[],"name":"getBalance","outputs":[{"internalType":"uint256","name":"","type":"uint256"}],"stateMutability":"view","type":"function","constant":true,"signature":"0x12065fe0"},{"inputs":[{"internalType":"uint256","name":"_candidateId","type":"uint256"}],"name":"getCandidate","outputs":[{"components":[{"internalType":"uint256","name":"candidateId","type":"uint256"},{"internalType":"string","name":"candidateName","type":"string"},{"internalType":"uint256","name":"partyId","type":"uint256"},{"internalType":"uint256","name":"candidateVoteCount","type":"uint256"},{"internalType":"string","name":"uri","type":"string"}],"internalType":"struct Election.Candidate","name":"","type":"tuple"}],"stateMutability":"view","type":"function","constant":true,"signature":"0x35b8e820"},{"inputs":[{"internalType":"address","name":"_voterAddress","type":"address"}],"name":"getVoter","outputs":[{"components":[{"internalType":"address","name":"voterId","type":"address"},{"internalType":"uint256","name":"citizenshipNumber","type":"uint256"},{"internalType":"bool","name":"registered","type":"bool"},{"internalType":"uint256","name":"vote","type":"uint256"},{"internalType":"bool","name":"voted","type":"bool"}],"internalType":"struct Election.Voter","name":"","type":"tuple"}],"stateMutability":"view","type":"function","constant":true,"signature":"0xd4f50f98"},{"inputs":[],"name":"getOwner","outputs":[{"internalType":"address","name":"","type":"address"}],"stateMutability":"view","type":"function","constant":true,"signature":"0x893d20e8"},{"inputs":[],"name":"getCurrentState","outputs":[{"internalType":"enum Election.State","name":"","type":"uint8"}],"stateMutability":"view","type":"function","constant":true,"signature":"0x378aa701"},{"inputs":[{"internalType":"address payable","name":"_to","type":"address"},{"internalType":"uint256","name":"_amount","type":"uint256"}],"name":"withdraw","outputs":[],"stateMutability":"payable","type":"function","payable":true,"signature":"0xf3fef3a3"}],"bytecode":"0x608060405260006002557fffffffffffffffffffffffffffffffffffffffffffffffffffffffffffffffff6009556000600a60006101000a81548160ff021916908360048111156200005657620000556200010b565b5b02179055503480156200006857600080fd5b5060405162003cf438038062003cf483398181016040528101906200008e9190620002cd565b336000806101000a81548173ffffffffffffffffffffffffffffffffffffffff021916908373ffffffffffffffffffffffffffffffffffffffff1602179055508060019081620000df919062000569565b506009546004819055506009546005819055506009546006819055506009546007819055505062000650565b7f4e487b7100000000000000000000000000000000000000000000000000000000600052602160045260246000fd5b6000604051905090565b600080fd5b600080fd5b600080fd5b600080fd5b6000601f19601f8301169050919050565b7f4e487b7100000000000000000000000000000000000000000000000000000000600052604160045260246000fd5b620001a38262000158565b810181811067ffffffffffffffff82111715620001c557620001c462000169565b5b80604052505050565b6000620001da6200013a565b9050620001e8828262000198565b919050565b600067ffffffffffffffff8211156200020b576200020a62000169565b5b620002168262000158565b9050602081019050919050565b60005b838110156200024357808201518184015260208101905062000226565b60008484015250505050565b6000620002666200026084620001ed565b620001ce565b90508281526020810184848401111562000285576200028462000153565b5b6200029284828562000223565b509392505050565b600082601f830112620002b257620002b16200014e565b5b8151620002c48482602086016200024f565b91505092915050565b600060208284031215620002e657620002e562000144565b5b600082015167ffffffffffffffff81111562000307576200030662000149565b5b62000315848285016200029a565b91505092915050565b600081519050919050565b7f4e487b7100000000000000000000000000000000000000000000000000000000600052602260045260246000fd5b600060028204905060018216806200037157607f821691505b60208210810362000387576200038662000329565b5b50919050565b60008190508160005260206000209050919050565b60006020601f8301049050919050565b600082821b905092915050565b600060088302620003f17fffffffffffffffffffffffffffffffffffffffffffffffffffffffffffffffff82620003b2565b620003fd8683620003b2565b95508019841693508086168417925050509392505050565b6000819050919050565b6000819050919050565b60006200044a620004446200043e8462000415565b6200041f565b62000415565b9050919050565b6000819050919050565b620004668362000429565b6200047e620004758262000451565b848454620003bf565b825550505050565b600090565b6200049562000486565b620004a28184846200045b565b505050565b5b81811015620004ca57620004be6000826200048b565b600181019050620004a8565b5050565b601f8211156200051957620004e3816200038d565b620004ee84620003a2565b81016020851015620004fe578190505b620005166200050d85620003a2565b830182620004a7565b50505b505050565b600082821c905092915050565b60006200053e600019846008026200051e565b1980831691505092915050565b60006200055983836200052b565b9150826002028217905092915050565b62000574826200031e565b67ffffffffffffffff81111562000590576200058f62000169565b5b6200059c825462000358565b620005a9828285620004ce565b600060209050601f831160018114620005e15760008415620005cc578287015190505b620005d885826200054b565b86555062000648565b601f198416620005f1866200038d565b60005b828110156200061b57848901518255600182019150602085019450602081019050620005f4565b868310156200063b578489015162000637601f8916826200052b565b8355505b6001600288020188555050505b505050505050565b61369480620006606000396000f3fe6080604052600436106101d15760003560e01c80639bf86ead116100f7578063c638407111610095578063dca5633b11610064578063dca5633b1461061c578063dd0e237314610647578063f3fef3a314610684578063f54603bf146106a0576101d8565b8063c638407114610560578063c6787c4e1461058b578063d4f50f98146105b6578063dac8fa2a146105f3576101d8565b8063b5230f00116100d1578063b5230f00146104b4578063b9223946146104df578063bedbc5011461050a578063c19d93fb14610535576101d8565b80639bf86ead1461041f578063a3ec138d14610448578063a9a981a314610489576101d8565b8063378aa7011161016f57806362d73eb81161013e57806362d73eb81461038757806385e8e7a71461039e578063893d20e8146103c95780638da5cb5b146103f4576101d8565b8063378aa701146103035780634a8a62ab1461032e5780634c0a6af01461034557806359f7846814610370576101d8565b806310b86695116101ab57806310b866951461025957806312065fe01461027057806330e7a79c1461029b57806335b8e820146102c6576101d8565b80630121b93f146101da57806306a49fce146102035780630b7fb2361461022e576101d8565b366101d857005b005b3480156101e657600080fd5b5061020160048036038101906101fc91906123eb565b6106c9565b005b34801561020f57600080fd5b506102186108a6565b60405161022591906125f6565b60405180910390f35b34801561023a57600080fd5b50610243610ae8565b604051610250919061278b565b60405180910390f35b34801561026557600080fd5b5061026e610e1d565b005b34801561027c57600080fd5b50610285610ee8565b60405161029291906127bc565b60405180910390f35b3480156102a757600080fd5b506102b0610ef0565b6040516102bd9190612821565b60405180910390f35b3480156102d257600080fd5b506102ed60048036038101906102e891906123eb565b610f82565b6040516102fa91906128c0565b60405180910390f35b34801561030f57600080fd5b506103186110f1565b6040516103259190612959565b60405180910390f35b34801561033a57600080fd5b50610343611108565b005b34801561035157600080fd5b5061035a611219565b60405161036791906127bc565b60405180910390f35b34801561037c57600080fd5b5061038561121f565b005b34801561039357600080fd5b5061039c611330565b005b3480156103aa57600080fd5b506103b3611441565b6040516103c09190612821565b60405180910390f35b3480156103d557600080fd5b506103de6114cf565b6040516103eb9190612983565b60405180910390f35b34801561040057600080fd5b506104096114f8565b6040516104169190612983565b60405180910390f35b34801561042b57600080fd5b50610446600480360381019061044191906123eb565b61151c565b005b34801561045457600080fd5b5061046f600480360381019061046a91906129ca565b61184e565b604051610480959493929190612a06565b60405180910390f35b34801561049557600080fd5b5061049e6118be565b6040516104ab91906127bc565b60405180910390f35b3480156104c057600080fd5b506104c96118c4565b6040516104d691906125f6565b60405180910390f35b3480156104eb57600080fd5b506104f4611ad5565b60405161050191906127bc565b60405180910390f35b34801561051657600080fd5b5061051f611adb565b60405161052c91906127bc565b60405180910390f35b34801561054157600080fd5b5061054a611ae1565b6040516105579190612959565b60405180910390f35b34801561056c57600080fd5b50610575611af4565b60405161058291906127bc565b60405180910390f35b34801561059757600080fd5b506105a0611afa565b6040516105ad91906127bc565b60405180910390f35b3480156105c257600080fd5b506105dd60048036038101906105d891906129ca565b611b00565b6040516105ea9190612ac1565b60405180910390f35b3480156105ff57600080fd5b5061061a60048036038101906106159190612c11565b611bf9565b005b34801561062857600080fd5b50610631611dfb565b60405161063e91906128c0565b60405180910390f35b34801561065357600080fd5b5061066e600480360381019061066991906123eb565b61200c565b60405161067b9190612983565b60405180910390f35b61069e60048036038101906106999190612cda565b61204b565b005b3480156106ac57600080fd5b506106c760048036038101906106c291906129ca565b612167565b005b42600454111561070e576040517f08c379a000000000000000000000000000000000000000000000000000000000815260040161070590612d66565b60405180910390fd5b4260055411610752576040517f08c379a000000000000000000000000000000000000000000000000000000000815260040161074990612dd2565b60405180910390fd5b6000600c60003373ffffffffffffffffffffffffffffffffffffffff1673ffffffffffffffffffffffffffffffffffffffff16815260200190815260200160002090508060040160009054906101000a900460ff16156107e7576040517f08c379a00000000000000000000000000000000000000000000000000000000081526004016107de90612e3e565b60405180910390fd5b8060020160009054906101000a900460ff16610838576040517f08c379a000000000000000000000000000000000000000000000000000000000815260040161082f90612ed0565b60405180910390fd5b818160030181905550600b6000838152602001908152602001600020600301600081548092919061086890612f1f565b91905055506003600081548092919061088090612f1f565b919050555060018160040160006101000a81548160ff0219169083151502179055505050565b6060600060025467ffffffffffffffff8111156108c6576108c5612ae6565b5b6040519080825280602002602001820160405280156108ff57816020015b6108ec612329565b8152602001906001900390816108e45790505b5090506000600190505b6002548111610ae057600b60008281526020019081526020016000206040518060a00160405290816000820154815260200160018201805461094a90612f96565b80601f016020809104026020016040519081016040528092919081815260200182805461097690612f96565b80156109c35780601f10610998576101008083540402835291602001916109c3565b820191906000526020600020905b8154815290600101906020018083116109a657829003601f168201915b5050505050815260200160028201548152602001600382015481526020016004820180546109f090612f96565b80601f0160208091040260200160405190810160405280929190818152602001828054610a1c90612f96565b8015610a695780601f10610a3e57610100808354040283529160200191610a69565b820191906000526020600020905b815481529060010190602001808311610a4c57829003601f168201915b50505050508152505082600183610a809190612fc7565b81518110610a9157610a90612ffb565b5b6020026020010181905250600082600183610aac9190612fc7565b81518110610abd57610abc612ffb565b5b602002602001015160600181815250508080610ad890612f1f565b915050610909565b508091505090565b60606000805b600880549050811015610baf57600c600060088381548110610b1357610b12612ffb565b5b9060005260206000200160009054906101000a900473ffffffffffffffffffffffffffffffffffffffff1673ffffffffffffffffffffffffffffffffffffffff1673ffffffffffffffffffffffffffffffffffffffff16815260200190815260200160002060020160009054906101000a900460ff16610b9c578180610b9890612f1f565b9250505b8080610ba790612f1f565b915050610aee565b5060008167ffffffffffffffff811115610bcc57610bcb612ae6565b5b604051908082528060200260200182016040528015610c0557816020015b610bf2612358565b815260200190600190039081610bea5790505b5090506000805b600880549050811015610e1357600c600060088381548110610c3157610c30612ffb565b5b9060005260206000200160009054906101000a900473ffffffffffffffffffffffffffffffffffffffff1673ffffffffffffffffffffffffffffffffffffffff1673ffffffffffffffffffffffffffffffffffffffff16815260200190815260200160002060020160009054906101000a900460ff16610e0057600c600060088381548110610cc357610cc2612ffb565b5b9060005260206000200160009054906101000a900473ffffffffffffffffffffffffffffffffffffffff1673ffffffffffffffffffffffffffffffffffffffff1673ffffffffffffffffffffffffffffffffffffffff1681526020019081526020016000206040518060a00160405290816000820160009054906101000a900473ffffffffffffffffffffffffffffffffffffffff1673ffffffffffffffffffffffffffffffffffffffff1673ffffffffffffffffffffffffffffffffffffffff168152602001600182015481526020016002820160009054906101000a900460ff16151515158152602001600382015481526020016004820160009054906101000a900460ff161515151581525050838381518110610de657610de5612ffb565b5b60200260200101819052508180610dfc90612f1f565b9250505b8080610e0b90612f1f565b915050610c0c565b5081935050505090565b60008054906101000a900473ffffffffffffffffffffffffffffffffffffffff1673ffffffffffffffffffffffffffffffffffffffff163373ffffffffffffffffffffffffffffffffffffffff1614610eab576040517f08c379a0000000000000000000000000000000000000000000000000000000008152600401610ea290613076565b60405180910390fd5b426006819055506009546005819055506001600a60006101000a81548160ff02191690836004811115610ee157610ee06128e2565b5b0217905550565b600047905090565b606060018054610eff90612f96565b80601f0160208091040260200160405190810160405280929190818152602001828054610f2b90612f96565b8015610f785780601f10610f4d57610100808354040283529160200191610f78565b820191906000526020600020905b815481529060010190602001808311610f5b57829003601f168201915b5050505050905090565b610f8a612329565b600b60008381526020019081526020016000206040518060a001604052908160008201548152602001600182018054610fc290612f96565b80601f0160208091040260200160405190810160405280929190818152602001828054610fee90612f96565b801561103b5780601f106110105761010080835404028352916020019161103b565b820191906000526020600020905b81548152906001019060200180831161101e57829003601f168201915b50505050508152602001600282015481526020016003820154815260200160048201805461106890612f96565b80601f016020809104026020016040519081016040528092919081815260200182805461109490612f96565b80156110e15780601f106110b6576101008083540402835291602001916110e1565b820191906000526020600020905b8154815290600101906020018083116110c457829003601f168201915b5050505050815250509050919050565b6000600a60009054906101000a900460ff16905090565b60008054906101000a900473ffffffffffffffffffffffffffffffffffffffff1673ffffffffffffffffffffffffffffffffffffffff163373ffffffffffffffffffffffffffffffffffffffff1614611196576040517f08c379a000000000000000000000000000000000000000000000000000000000815260040161118d90613076565b60405180910390fd5b6006548042116111db576040517f08c379a00000000000000000000000000000000000000000000000000000000081526004016111d2906130e2565b60405180910390fd5b426007819055506009546006819055506002600a60006101000a81548160ff02191690836004811115611211576112106128e2565b5b021790555050565b60045481565b60008054906101000a900473ffffffffffffffffffffffffffffffffffffffff1673ffffffffffffffffffffffffffffffffffffffff163373ffffffffffffffffffffffffffffffffffffffff16146112ad576040517f08c379a00000000000000000000000000000000000000000000000000000000081526004016112a490613076565b60405180910390fd5b6004548042116112f2576040517f08c379a00000000000000000000000000000000000000000000000000000000081526004016112e9906130e2565b60405180910390fd5b426005819055506009546004819055506004600a60006101000a81548160ff02191690836004811115611328576113276128e2565b5b021790555050565b60008054906101000a900473ffffffffffffffffffffffffffffffffffffffff1673ffffffffffffffffffffffffffffffffffffffff163373ffffffffffffffffffffffffffffffffffffffff16146113be576040517f08c379a00000000000000000000000000000000000000000000000000000000081526004016113b590613076565b60405180910390fd5b600754804211611403576040517f08c379a00000000000000000000000000000000000000000000000000000000081526004016113fa906130e2565b60405180910390fd5b426004819055506009546007819055506003600a60006101000a81548160ff02191690836004811115611439576114386128e2565b5b021790555050565b6001805461144e90612f96565b80601f016020809104026020016040519081016040528092919081815260200182805461147a90612f96565b80156114c75780601f1061149c576101008083540402835291602001916114c7565b820191906000526020600020905b8154815290600101906020018083116114aa57829003601f168201915b505050505081565b60008060009054906101000a900473ffffffffffffffffffffffffffffffffffffffff16905090565b60008054906101000a900473ffffffffffffffffffffffffffffffffffffffff1681565b600654804211611561576040517f08c379a0000000000000000000000000000000000000000000000000000000008152600401611558906130e2565b60405180910390fd5b6007548042106115a6576040517f08c379a000000000000000000000000000000000000000000000000000000000815260040161159d90613174565b60405180910390fd5b600073ffffffffffffffffffffffffffffffffffffffff16600c60003373ffffffffffffffffffffffffffffffffffffffff1673ffffffffffffffffffffffffffffffffffffffff16815260200190815260200160002060000160009054906101000a900473ffffffffffffffffffffffffffffffffffffffff1673ffffffffffffffffffffffffffffffffffffffff1614611677576040517f08c379a000000000000000000000000000000000000000000000000000000000815260040161166e906131e0565b60405180910390fd5b6040518060a001604052803373ffffffffffffffffffffffffffffffffffffffff1681526020018481526020016000151581526020016000815260200160001515815250600c60003373ffffffffffffffffffffffffffffffffffffffff1673ffffffffffffffffffffffffffffffffffffffff16815260200190815260200160002060008201518160000160006101000a81548173ffffffffffffffffffffffffffffffffffffffff021916908373ffffffffffffffffffffffffffffffffffffffff1602179055506020820151816001015560408201518160020160006101000a81548160ff0219169083151502179055506060820151816003015560808201518160040160006101000a81548160ff0219169083151502179055509050506008339080600181540180825580915050600190039060005260206000200160009091909190916101000a81548173ffffffffffffffffffffffffffffffffffffffff021916908373ffffffffffffffffffffffffffffffffffffffff1602179055503373ffffffffffffffffffffffffffffffffffffffff167f9fbb711049feda7761c841c23846f78a83d6526b886aa614aa55764a56ade5748460405161184191906127bc565b60405180910390a2505050565b600c6020528060005260406000206000915090508060000160009054906101000a900473ffffffffffffffffffffffffffffffffffffffff16908060010154908060020160009054906101000a900460ff16908060030154908060040160009054906101000a900460ff16905085565b60025481565b6060600060025467ffffffffffffffff8111156118e4576118e3612ae6565b5b60405190808252806020026020018201604052801561191d57816020015b61190a612329565b8152602001906001900390816119025790505b5090506000600190505b6002548111611acd57600b60008281526020019081526020016000206040518060a00160405290816000820154815260200160018201805461196890612f96565b80601f016020809104026020016040519081016040528092919081815260200182805461199490612f96565b80156119e15780601f106119b6576101008083540402835291602001916119e1565b820191906000526020600020905b8154815290600101906020018083116119c457829003601f168201915b505050505081526020016002820154815260200160038201548152602001600482018054611a0e90612f96565b80601f0160208091040260200160405190810160405280929190818152602001828054611a3a90612f96565b8015611a875780601f10611a5c57610100808354040283529160200191611a87565b820191906000526020600020905b815481529060010190602001808311611a6a57829003601f168201915b50505050508152505082600183611a9e9190612fc7565b81518110611aaf57611aae612ffb565b5b60200260200101819052508080611ac590612f1f565b915050611927565b508091505090565b60055481565b60065481565b600a60009054906101000a900460ff1681565b60035481565b60075481565b611b08612358565b600c60008373ffffffffffffffffffffffffffffffffffffffff1673ffffffffffffffffffffffffffffffffffffffff1681526020019081526020016000206040518060a00160405290816000820160009054906101000a900473ffffffffffffffffffffffffffffffffffffffff1673ffffffffffffffffffffffffffffffffffffffff1673ffffffffffffffffffffffffffffffffffffffff168152602001600182015481526020016002820160009054906101000a900460ff16151515158152602001600382015481526020016004820160009054906101000a900460ff1615151515815250509050919050565b600454804210611c3e576040517f08c379a0000000000000000000000000000000000000000000000000000000008152600401611c3590613174565b60405180910390fd5b60008054906101000a900473ffffffffffffffffffffffffffffffffffffffff1673ffffffffffffffffffffffffffffffffffffffff163373ffffffffffffffffffffffffffffffffffffffff1614611ccc576040517f08c379a0000000000000000000000000000000000000000000000000000000008152600401611cc390613076565b60405180910390fd5b60008311611d0f576040517f08c379a0000000000000000000000000000000000000000000000000000000008152600401611d069061324c565b60405180910390fd5b60026000815480929190611d2290612f1f565b91905055506040518060a0016040528060025481526020018581526020018481526020016000815260200183815250600b60006002548152602001908152602001600020600082015181600001556020820151816001019081611d859190613418565b5060408201518160020155606082015181600301556080820151816004019081611daf9190613418565b509050507f726a91efdd2d0123829e8af6427e48d78d66f125b775d28b4cd48e193afc02d26002548585600086604051611ded959493929190613525565b60405180910390a150505050565b611e03612329565b600554804211611e48576040517f08c379a0000000000000000000000000000000000000000000000000000000008152600401611e3f906130e2565b60405180910390fd5b600080600190505b60025481116120065781600b6000838152602001908152602001600020600301541115611ff357600b6000828152602001908152602001600020600301549150600b60008281526020019081526020016000206040518060a001604052908160008201548152602001600182018054611ec890612f96565b80601f0160208091040260200160405190810160405280929190818152602001828054611ef490612f96565b8015611f415780601f10611f1657610100808354040283529160200191611f41565b820191906000526020600020905b815481529060010190602001808311611f2457829003601f168201915b505050505081526020016002820154815260200160038201548152602001600482018054611f6e90612f96565b80601f0160208091040260200160405190810160405280929190818152602001828054611f9a90612f96565b8015611fe75780601f10611fbc57610100808354040283529160200191611fe7565b820191906000526020600020905b815481529060010190602001808311611fca57829003601f168201915b50505050508152505093505b8080611ffe90612f1f565b915050611e50565b50505090565b6008818154811061201c57600080fd5b906000526020600020016000915054906101000a900473ffffffffffffffffffffffffffffffffffffffff1681565b60008054906101000a900473ffffffffffffffffffffffffffffffffffffffff1673ffffffffffffffffffffffffffffffffffffffff163373ffffffffffffffffffffffffffffffffffffffff16146120d9576040517f08c379a00000000000000000000000000000000000000000000000000000000081526004016120d090613076565b60405180910390fd5b8047101561211c576040517f08c379a0000000000000000000000000000000000000000000000000000000008152600401612113906135d2565b60405180910390fd5b8173ffffffffffffffffffffffffffffffffffffffff166108fc829081150290604051600060405180830381858888f19350505050158015612162573d6000803e3d6000fd5b505050565b6004548042106121ac576040517f08c379a00000000000000000000000000000000000000000000000000000000081526004016121a390613174565b60405180910390fd5b60008054906101000a900473ffffffffffffffffffffffffffffffffffffffff1673ffffffffffffffffffffffffffffffffffffffff163373ffffffffffffffffffffffffffffffffffffffff161461223a576040517f08c379a000000000000000000000000000000000000000000000000000000000815260040161223190613076565b60405180910390fd5b600c60008373ffffffffffffffffffffffffffffffffffffffff1673ffffffffffffffffffffffffffffffffffffffff16815260200190815260200160002060020160009054906101000a900460ff16156122ca576040517f08c379a00000000000000000000000000000000000000000000000000000000081526004016122c19061363e565b60405180910390fd5b6001600c60008473ffffffffffffffffffffffffffffffffffffffff1673ffffffffffffffffffffffffffffffffffffffff16815260200190815260200160002060020160006101000a81548160ff0219169083151502179055505050565b6040518060a0016040528060008152602001606081526020016000815260200160008152602001606081525090565b6040518060a00160405280600073ffffffffffffffffffffffffffffffffffffffff16815260200160008152602001600015158152602001600081526020016000151581525090565b6000604051905090565b600080fd5b600080fd5b6000819050919050565b6123c8816123b5565b81146123d357600080fd5b50565b6000813590506123e5816123bf565b92915050565b600060208284031215612401576124006123ab565b5b600061240f848285016123d6565b91505092915050565b600081519050919050565b600082825260208201905092915050565b6000819050602082019050919050565b61244d816123b5565b82525050565b600081519050919050565b600082825260208201905092915050565b60005b8381101561248d578082015181840152602081019050612472565b60008484015250505050565b6000601f19601f8301169050919050565b60006124b582612453565b6124bf818561245e565b93506124cf81856020860161246f565b6124d881612499565b840191505092915050565b600060a0830160008301516124fb6000860182612444565b506020830151848203602086015261251382826124aa565b91505060408301516125286040860182612444565b50606083015161253b6060860182612444565b506080830151848203608086015261255382826124aa565b9150508091505092915050565b600061256c83836124e3565b905092915050565b6000602082019050919050565b600061258c82612418565b6125968185612423565b9350836020820285016125a885612434565b8060005b858110156125e457848403895281516125c58582612560565b94506125d083612574565b925060208a019950506001810190506125ac565b50829750879550505050505092915050565b600060208201905081810360008301526126108184612581565b905092915050565b600081519050919050565b600082825260208201905092915050565b6000819050602082019050919050565b600073ffffffffffffffffffffffffffffffffffffffff82169050919050565b600061266f82612644565b9050919050565b61267f81612664565b82525050565b60008115159050919050565b61269a81612685565b82525050565b60a0820160008201516126b66000850182612676565b5060208201516126c96020850182612444565b5060408201516126dc6040850182612691565b5060608201516126ef6060850182612444565b5060808201516127026080850182612691565b50505050565b600061271483836126a0565b60a08301905092915050565b6000602082019050919050565b600061273882612618565b6127428185612623565b935061274d83612634565b8060005b8381101561277e5781516127658882612708565b975061277083612720565b925050600181019050612751565b5085935050505092915050565b600060208201905081810360008301526127a5818461272d565b905092915050565b6127b6816123b5565b82525050565b60006020820190506127d160008301846127ad565b92915050565b600082825260208201905092915050565b60006127f382612453565b6127fd81856127d7565b935061280d81856020860161246f565b61281681612499565b840191505092915050565b6000602082019050818103600083015261283b81846127e8565b905092915050565b600060a08301600083015161285b6000860182612444565b506020830151848203602086015261287382826124aa565b91505060408301516128886040860182612444565b50606083015161289b6060860182612444565b50608083015184820360808601526128b382826124aa565b9150508091505092915050565b600060208201905081810360008301526128da8184612843565b905092915050565b7f4e487b7100000000000000000000000000000000000000000000000000000000600052602160045260246000fd5b60058110612922576129216128e2565b5b50565b600081905061293382612911565b919050565b600061294382612925565b9050919050565b61295381612938565b82525050565b600060208201905061296e600083018461294a565b92915050565b61297d81612664565b82525050565b60006020820190506129986000830184612974565b92915050565b6129a781612664565b81146129b257600080fd5b50565b6000813590506129c48161299e565b92915050565b6000602082840312156129e0576129df6123ab565b5b60006129ee848285016129b5565b91505092915050565b612a0081612685565b82525050565b600060a082019050612a1b6000830188612974565b612a2860208301876127ad565b612a3560408301866129f7565b612a4260608301856127ad565b612a4f60808301846129f7565b9695505050505050565b60a082016000820151612a6f6000850182612676565b506020820151612a826020850182612444565b506040820151612a956040850182612691565b506060820151612aa86060850182612444565b506080820151612abb6080850182612691565b50505050565b600060a082019050612ad66000830184612a59565b92915050565b600080fd5b600080fd5b7f4e487b7100000000000000000000000000000000000000000000000000000000600052604160045260246000fd5b612b1e82612499565b810181811067ffffffffffffffff82111715612b3d57612b3c612ae6565b5b80604052505050565b6000612b506123a1565b9050612b5c8282612b15565b919050565b600067ffffffffffffffff821115612b7c57612b7b612ae6565b5b612b8582612499565b9050602081019050919050565b82818337600083830152505050565b6000612bb4612baf84612b61565b612b46565b905082815260208101848484011115612bd057612bcf612ae1565b5b612bdb848285612b92565b509392505050565b600082601f830112612bf857612bf7612adc565b5b8135612c08848260208601612ba1565b91505092915050565b600080600060608486031215612c2a57612c296123ab565b5b600084013567ffffffffffffffff811115612c4857612c476123b0565b5b612c5486828701612be3565b9350506020612c65868287016123d6565b925050604084013567ffffffffffffffff811115612c8657612c856123b0565b5b612c9286828701612be3565b9150509250925092565b6000612ca782612644565b9050919050565b612cb781612c9c565b8114612cc257600080fd5b50565b600081359050612cd481612cae565b92915050565b60008060408385031215612cf157612cf06123ab565b5b6000612cff85828601612cc5565b9250506020612d10858286016123d6565b9150509250929050565b7f456c656374696f6e20686173206e6f742073746172746564207965742e000000600082015250565b6000612d50601d836127d7565b9150612d5b82612d1a565b602082019050919050565b60006020820190508181036000830152612d7f81612d43565b9050919050565b7f456c656374696f6e206973206f7665722e000000000000000000000000000000600082015250565b6000612dbc6011836127d7565b9150612dc782612d86565b602082019050919050565b60006020820190508181036000830152612deb81612daf565b9050919050565b7f596f75206861766520616c726561647920766f74656400000000000000000000600082015250565b6000612e286016836127d7565b9150612e3382612df2565b602082019050919050565b60006020820190508181036000830152612e5781612e1b565b9050919050565b7f596f7520617265206e6f7420726567697374657265642f617070726f7665642060008201527f6173206120766f74657200000000000000000000000000000000000000000000602082015250565b6000612eba602a836127d7565b9150612ec582612e5e565b604082019050919050565b60006020820190508181036000830152612ee981612ead565b9050919050565b7f4e487b7100000000000000000000000000000000000000000000000000000000600052601160045260246000fd5b6000612f2a826123b5565b91507fffffffffffffffffffffffffffffffffffffffffffffffffffffffffffffffff8203612f5c57612f5b612ef0565b5b600182019050919050565b7f4e487b7100000000000000000000000000000000000000000000000000000000600052602260045260246000fd5b60006002820490506001821680612fae57607f821691505b602082108103612fc157612fc0612f67565b5b50919050565b6000612fd2826123b5565b9150612fdd836123b5565b9250828203905081811115612ff557612ff4612ef0565b5b92915050565b7f4e487b7100000000000000000000000000000000000000000000000000000000600052603260045260246000fd5b7f4f6e6c79206f776e65722063616e206163636573732074686973000000000000600082015250565b6000613060601a836127d7565b915061306b8261302a565b602082019050919050565b6000602082019050818103600083015261308f81613053565b9050919050565b7f5761697420666f72207374617274000000000000000000000000000000000000600082015250565b60006130cc600e836127d7565b91506130d782613096565b602082019050919050565b600060208201905081810360008301526130fb816130bf565b9050919050565b7f54696d6520666f72207468697320616374696f6e20686173206578636565646560008201527f6400000000000000000000000000000000000000000000000000000000000000602082015250565b600061315e6021836127d7565b915061316982613102565b604082019050919050565b6000602082019050818103600083015261318d81613151565b9050919050565b7f566f74657220616c726561647920726567697374657265640000000000000000600082015250565b60006131ca6018836127d7565b91506131d582613194565b602082019050919050565b600060208201905081810360008301526131f9816131bd565b9050919050565b7f54686520706172747949642073686f756c646e2774206265207a65726f000000600082015250565b6000613236601d836127d7565b915061324182613200565b602082019050919050565b6000602082019050818103600083015261326581613229565b9050919050565b60008190508160005260206000209050919050565b60006020601f8301049050919050565b600082821b905092915050565b6000600883026132ce7fffffffffffffffffffffffffffffffffffffffffffffffffffffffffffffffff82613291565b6132d88683613291565b95508019841693508086168417925050509392505050565b6000819050919050565b600061331561331061330b846123b5565b6132f0565b6123b5565b9050919050565b6000819050919050565b61332f836132fa565b61334361333b8261331c565b84845461329e565b825550505050565b600090565b61335861334b565b613363818484613326565b505050565b5b818110156133875761337c600082613350565b600181019050613369565b5050565b601f8211156133cc5761339d8161326c565b6133a684613281565b810160208510156133b5578190505b6133c96133c185613281565b830182613368565b50505b505050565b600082821c905092915050565b60006133ef600019846008026133d1565b1980831691505092915050565b600061340883836133de565b9150826002028217905092915050565b61342182612453565b67ffffffffffffffff81111561343a57613439612ae6565b5b6134448254612f96565b61344f82828561338b565b600060209050601f8311600181146134825760008415613470578287015190505b61347a85826133fc565b8655506134e2565b601f1984166134908661326c565b60005b828110156134b857848901518255600182019150602085019450602081019050613493565b868310156134d557848901516134d1601f8916826133de565b8355505b6001600288020188555050505b505050505050565b6000819050919050565b600061350f61350a613505846134ea565b6132f0565b6123b5565b9050919050565b61351f816134f4565b82525050565b600060a08201905061353a60008301886127ad565b818103602083015261354c81876127e8565b905061355b60408301866127ad565b6135686060830185613516565b818103608083015261357a81846127e8565b90509695505050505050565b7f4e6f20656e6f7567682066756e6420746f207769746864726177000000000000600082015250565b60006135bc601a836127d7565b91506135c782613586565b602082019050919050565b600060208201905081810360008301526135eb816135af565b9050919050565b7f566f74657220686173206e6f7420726567697374657265642079657400000000600082015250565b6000613628601c836127d7565b9150613633826135f2565b602082019050919050565b600060208201905081810360008301526136578161361b565b905091905056fea2646970667358221220220c5fbf029b5c781083161c4cf985500de4be32142c9da05bf55fba9687216364736f6c63430008130033","immutableReferences":{},"source":"// SPDX-License-Identifier: MIT\r\n\r\npragma solidity >=0.7.0 <0.9.0;\r\n\r\n// Pass dynamic arrays and structs between functions\r\npragma experimental ABIEncoderV2;\r\n\r\ncontract Election {\r\n    address public owner;\r\n    string public electionName;\r\n    uint public candidateCount = 0;\r\n    uint public voteCount;\r\n    uint public startVote;\r\n    uint public endVote;\r\n    uint public startReg;\r\n    uint public endReg;\r\n    address[] public voterAddresses;\r\n    uint256 MAX_INT = 2 ** 256 - 1;\r\n\r\n    // Election Current state\r\n    enum State {\r\n        registrationNotStarted,\r\n        registrationStarted,\r\n        registrationEnded,\r\n        electionStarted,\r\n        electionEnded\r\n    }\r\n\r\n    State public state = State.registrationNotStarted;\r\n\r\n    /**\r\n     *\t@dev Deployer sets the name of the election.\r\n     *\tDeployer is the owner of contract\r\n     */\r\n    constructor(string memory _name) {\r\n        owner = msg.sender;\r\n        electionName = _name;\r\n        startVote = MAX_INT;\r\n        endVote = MAX_INT;\r\n        startReg = MAX_INT;\r\n        endReg = MAX_INT;\r\n    }\r\n\r\n    struct Candidate {\r\n        uint candidateId;\r\n        string candidateName;\r\n        uint partyId;\r\n        uint candidateVoteCount;\r\n        string uri; // May contain the link to profile picture or any metadata.\r\n    }\r\n\r\n    struct Voter {\r\n        address voterId;\r\n        uint256 citizenshipNumber;\r\n        bool registered;\r\n        uint256 vote;\r\n        bool voted;\r\n    }\r\n\r\n    // Mappings\r\n    mapping(uint => Candidate) candidates;\r\n    mapping(address => Voter) public voters;\r\n\r\n    // Events\r\n    event NewCandidateAdded(\r\n        uint candidateId,\r\n        string candidateName,\r\n        uint partyId,\r\n        uint candidateVoteCount,\r\n        string uri\r\n    );\r\n\r\n    event NewRegistration(address indexed from, uint citizenshipNumber);\r\n\r\n    /**\r\n     *\tOnly owner can call functions with this modifier\r\n     *\r\n     */\r\n    modifier onlyOwner() {\r\n        require(msg.sender == owner, \"Only owner can access this\");\r\n        _;\r\n    }\r\n\r\n    /**\r\n     *\tFunction with this modifer can only be called before _time.\r\n     *\r\n     */\r\n    modifier onlyBefore(uint _time) {\r\n        require(block.timestamp < _time, \"Time for this action has exceeded\");\r\n        _;\r\n    }\r\n\r\n    /**\r\n     *\tFunction with this modifer can only be called after _time.\r\n     *\r\n     */\r\n    modifier onlyAfter(uint _time) {\r\n        require(block.timestamp > _time, \"Wait for start\");\r\n        _;\r\n    }\r\n\r\n    /**\r\n     *\t@dev Can start election\r\n     *  Election can start only after registration period expired.\r\n     */\r\n    function startElection() public onlyOwner onlyAfter(endReg) {\r\n        startVote = block.timestamp;\r\n        endReg = MAX_INT;\r\n        state = State.electionStarted;\r\n    }\r\n\r\n    /**\r\n     * @dev Can end election\r\n     * Only owner can end the election\r\n     */\r\n    function endElection() public onlyOwner onlyAfter(startVote) {\r\n        endVote = block.timestamp;\r\n        startVote = MAX_INT;\r\n        state = State.electionEnded;\r\n    }\r\n\r\n    /**\r\n     *\t@dev Can start registration\r\n     *  Voters can be registered after registration starts\r\n     */\r\n    function startRegistration() public onlyOwner {\r\n        startReg = block.timestamp;\r\n        endVote = MAX_INT; // for second cycle of vote\r\n        state = State.registrationStarted;\r\n    }\r\n\r\n    /**\r\n     *\t@dev Can end registration\r\n     *  Voters can not be registered after registration ends\r\n     */\r\n    function endRegistration() public onlyOwner onlyAfter(startReg) {\r\n        endReg = block.timestamp;\r\n        startReg = MAX_INT;\r\n        state = State.registrationEnded;\r\n    }\r\n\r\n    /**\r\n     *\t@dev Can register to vote in the election\r\n     *  @param citizenshipNumber Their unique identification number (can be replaced with any unique data for that person)\r\n     *  TODO:\r\n     *\t\t- An address who has aready registered can call this method again and again.\r\n     * \t\t- Can be fixed by adding one key which represents if user has asked to register in Voter struct\r\n     * \t\t- Set that to true when voter registers.\r\n     * \t\t- Check that key is set to false before allowing to register\r\n     */\r\n    function registerAsVoter(\r\n        uint256 citizenshipNumber\r\n    ) public onlyAfter(startReg) onlyBefore(endReg) {\r\n        require(\r\n            voters[msg.sender].voterId == address(0),\r\n            \"Voter already registered\"\r\n        );\r\n        voters[msg.sender] = Voter(\r\n            msg.sender,\r\n            citizenshipNumber,\r\n            false, // default for the approval of registration\r\n            0,\r\n            false // default for the voted state\r\n        );\r\n        voterAddresses.push(msg.sender); // making list of addresses\r\n        emit NewRegistration(msg.sender, citizenshipNumber);\r\n    }\r\n\r\n    /**\r\n     *\t@dev Returns the name of the election\r\n     * \t\t It is reduntant, as electionName variable is public\r\n     */\r\n    function getElectionName() public view returns (string memory) {\r\n        return electionName;\r\n    }\r\n\r\n    /**\r\n     *\t@dev Can add candidates for an election\r\n     *  @param _candidateName Name of the candidate\r\n     *  @param _partyId Id representing political party they belong to\r\n     *  @param _uri Metadata for the candidate\r\n     */\r\n    function addCandidates(\r\n        string memory _candidateName,\r\n        uint _partyId,\r\n        string memory _uri\r\n    ) public onlyBefore(startVote) onlyOwner {\r\n        require(_partyId > 0, \"The partyId shouldn't be zero\");\r\n        candidateCount++;\r\n        candidates[candidateCount] = Candidate(\r\n            candidateCount,\r\n            _candidateName,\r\n            _partyId,\r\n            0,\r\n            _uri\r\n        );\r\n        emit NewCandidateAdded(\r\n            candidateCount,\r\n            _candidateName,\r\n            _partyId,\r\n            0,\r\n            _uri\r\n        );\r\n    }\r\n\r\n    /**\r\n     *\t@dev Can get candidates data\r\n     */\r\n    function getCandidates() external view returns (Candidate[] memory) {\r\n        Candidate[] memory list = new Candidate[](candidateCount);\r\n        for (uint256 i = 1; i <= candidateCount; i++) {\r\n            list[i - 1] = candidates[i];\r\n            list[i - 1].candidateVoteCount = 0;\r\n        }\r\n        return list;\r\n    }\r\n\r\n    /**\r\n     * @dev Can get registered voter address for approval and voters stats\r\n     */\r\n    function getNonApprovedVoters() public view returns (Voter[] memory) {\r\n        uint nonApprovedVoterCount = 0;\r\n        // Iteration for size of list for nonApprovedVoters\r\n        for (uint i = 0; i < voterAddresses.length; i++) {\r\n            if (!voters[voterAddresses[i]].registered) {\r\n                nonApprovedVoterCount++;\r\n            }\r\n        }\r\n        Voter[] memory nonApprovedVoters = new Voter[](nonApprovedVoterCount);\r\n        uint count = 0;\r\n        for (uint i = 0; i < voterAddresses.length; i++) {\r\n            if (!voters[voterAddresses[i]].registered) {\r\n                nonApprovedVoters[count] = voters[voterAddresses[i]];\r\n                count++;\r\n            }\r\n        }\r\n        return nonApprovedVoters;\r\n    }\r\n\r\n    /**\r\n     *\t@dev Can approve voters\r\n     *  @param _voter Address of the voter\r\n     * \tTODO:\r\n     * \t\tVoters who have not registered, can be approved.\r\n     *\t\tCan be fixed by adding one key which represents if user has asked to register in Voter struct\r\n     */\r\n    function approveVoters(\r\n        address _voter\r\n    ) public onlyBefore(startVote) onlyOwner {\r\n        require(!voters[_voter].registered, \"Voter has not registered yet\");\r\n        voters[_voter].registered = true;\r\n    }\r\n\r\n    /**\r\n     *\t@dev Can vote for their desired candidate\r\n     *  @param _candidateId The candidateId of the desired candidate\r\n     */\r\n    function vote(uint _candidateId) public {\r\n        require(startVote <= block.timestamp, \"Election has not started yet.\");\r\n        require(endVote > block.timestamp, \"Election is over.\");\r\n\r\n        Voter storage _voter = voters[msg.sender];\r\n\r\n        require(!_voter.voted, \"You have already voted\");\r\n        require(\r\n            _voter.registered,\r\n            \"You are not registered/approved as a voter\"\r\n        );\r\n\r\n        _voter.vote = _candidateId;\r\n        candidates[_candidateId].candidateVoteCount++;\r\n        voteCount++;\r\n        _voter.voted = true;\r\n    }\r\n\r\n    /**\r\n     *\t@dev Can get Candidate who won the election\r\n     */\r\n    function checkResults()\r\n        external\r\n        view\r\n        onlyAfter(endVote)\r\n        returns (Candidate memory winningCandidateId)\r\n    {\r\n        uint highestVoteCount = 0;\r\n        for (uint i = 1; i <= candidateCount; i++) {\r\n            if (candidates[i].candidateVoteCount > highestVoteCount) {\r\n                highestVoteCount = candidates[i].candidateVoteCount;\r\n                winningCandidateId = candidates[i];\r\n            }\r\n        }\r\n    }\r\n\r\n    /**\r\n     *\t@dev Can get vote details for each candidate\r\n     */\r\n    function getFinalStats() external view returns (Candidate[] memory) {\r\n        Candidate[] memory list = new Candidate[](candidateCount);\r\n        for (uint256 i = 1; i <= candidateCount; i++) {\r\n            list[i - 1] = candidates[i];\r\n        }\r\n        return list;\r\n    }\r\n\r\n    /**\r\n     * @dev Can get ether balance of contract\r\n     */\r\n    function getBalance() public view returns (uint) {\r\n        return address(this).balance;\r\n    }\r\n\r\n    /**\r\n     * @dev Can get particular candidate using candidate Id\r\n     */\r\n    function getCandidate(\r\n        uint256 _candidateId\r\n    ) public view returns (Candidate memory) {\r\n        return candidates[_candidateId];\r\n    }\r\n\r\n    /**\r\n     * @dev Can get particular candidate using candidate Id\r\n     */\r\n    function getVoter(\r\n        address _voterAddress\r\n    ) public view returns (Voter memory) {\r\n        return voters[_voterAddress];\r\n    }\r\n\r\n    /**\r\n     * @dev Can get owner of the contract\r\n     */\r\n    function getOwner() public view returns (address) {\r\n        return owner;\r\n    }\r\n\r\n    /**\r\n     * @dev Can get contract internal State\r\n     */\r\n    function getCurrentState() public view returns (State) {\r\n        return state;\r\n    }\r\n\r\n    /**\r\n     * @dev Withdraw to a wallet\r\n     * @param _to Address to transfer amount to\r\n     * @param _amount Amount of ETH in wei\r\n     */\r\n\r\n    function withdraw(\r\n        address payable _to,\r\n        uint _amount\r\n    ) external payable onlyOwner {\r\n        require(address(this).balance >= _amount, \"No enough fund to withdraw\");\r\n        payable(_to).transfer(_amount);\r\n    }\r\n\r\n    fallback() external payable {}\r\n\r\n    receive() external payable {}\r\n}\r\n","sourcePath":"D:\\BlockChain-Fellowship\\voting_dapp\\contracts\\Election.sol","compiler":{"name":"solc","version":"0.8.19+commit.7dd6d404.Emscripten.clang"},"schemaVersion":"3.4.13","updatedAt":"2023-05-16T12:13:34.560Z","networkType":"ethereum","devdoc":{"kind":"dev","methods":{"addCandidates(string,uint256,string)":{"details":"Can add candidates for an election","params":{"_candidateName":"Name of the candidate","_partyId":"Id representing political party they belong to","_uri":"Metadata for the candidate"}},"approveVoters(address)":{"details":"Can approve voters","params":{"_voter":"Address of the voter \tTODO: \t\tVoters who have not registered, can be approved.\t\tCan be fixed by adding one key which represents if user has asked to register in Voter struct"}},"checkResults()":{"details":"Can get Candidate who won the election"},"constructor":{"details":"Deployer sets the name of the election.\tDeployer is the owner of contract"},"endElection()":{"details":"Can end election Only owner can end the election"},"endRegistration()":{"details":"Can end registration  Voters can not be registered after registration ends"},"getBalance()":{"details":"Can get ether balance of contract"},"getCandidate(uint256)":{"details":"Can get particular candidate using candidate Id"},"getCandidates()":{"details":"Can get candidates data"},"getCurrentState()":{"details":"Can get contract internal State"},"getElectionName()":{"details":"Returns the name of the election \t\t It is reduntant, as electionName variable is public"},"getFinalStats()":{"details":"Can get vote details for each candidate"},"getNonApprovedVoters()":{"details":"Can get registered voter address for approval and voters stats"},"getOwner()":{"details":"Can get owner of the contract"},"getVoter(address)":{"details":"Can get particular candidate using candidate Id"},"registerAsVoter(uint256)":{"details":"Can register to vote in the election","params":{"citizenshipNumber":"Their unique identification number (can be replaced with any unique data for that person)  TODO:\t\t- An address who has aready registered can call this method again and again. \t\t- Can be fixed by adding one key which represents if user has asked to register in Voter struct \t\t- Set that to true when voter registers. \t\t- Check that key is set to false before allowing to register"}},"startElection()":{"details":"Can start election  Election can start only after registration period expired."},"startRegistration()":{"details":"Can start registration  Voters can be registered after registration starts"},"vote(uint256)":{"details":"Can vote for their desired candidate","params":{"_candidateId":"The candidateId of the desired candidate"}},"withdraw(address,uint256)":{"details":"Withdraw to a wallet","params":{"_amount":"Amount of ETH in wei","_to":"Address to transfer amount to"}}},"version":1},"userdoc":{"kind":"user","methods":{},"version":1},"timeoutBlocks":0,"autoGas":true,"gasMultiplier":1.25}